{"contracts/Guard.sol":{"Guard":{"abi":[{"inputs":[{"internalType":"address","name":"_vault","type":"address"},{"internalType":"uint256","name":"_withdrawThreshold","type":"uint256"},{"internalType":"address","name":"_oracle","type":"address"}],"stateMutability":"nonpayable","type":"constructor"},{"inputs":[{"internalType":"uint256","name":"requested","type":"uint256"},{"internalType":"uint256","name":"max","type":"uint256"}],"name":"ExceedsThreshold","type":"error"},{"inputs":[{"internalType":"address","name":"owner","type":"address"}],"name":"OwnableInvalidOwner","type":"error"},{"inputs":[{"internalType":"address","name":"account","type":"address"}],"name":"OwnableUnauthorizedAccount","type":"error"},{"inputs":[],"name":"PausedError","type":"error"},{"inputs":[],"name":"ReentrancyGuardReentrantCall","type":"error"},{"anonymous":false,"inputs":[{"indexed":true,"internalType":"address","name":"previousOwner","type":"address"},{"indexed":true,"internalType":"address","name":"newOwner","type":"address"}],"name":"OwnershipTransferred","type":"event"},{"anonymous":false,"inputs":[],"name":"Paused","type":"event"},{"anonymous":false,"inputs":[],"name":"Unpaused","type":"event"},{"anonymous":false,"inputs":[{"indexed":false,"internalType":"uint256","name":"oldThreshold","type":"uint256"},{"indexed":false,"internalType":"uint256","name":"newThreshold","type":"uint256"}],"name":"WithdrawThresholdUpdated","type":"event"},{"anonymous":false,"inputs":[{"indexed":true,"internalType":"address","name":"user","type":"address"},{"indexed":false,"internalType":"uint256","name":"amount","type":"uint256"},{"indexed":false,"internalType":"bool","name":"allowed","type":"bool"}],"name":"WithdrawalAttempt","type":"event"},{"inputs":[],"name":"getOracleLastUpdate","outputs":[{"internalType":"uint256","name":"","type":"uint256"}],"stateMutability":"view","type":"function"},{"inputs":[{"internalType":"uint256","name":"index","type":"uint256"}],"name":"getWithdrawalAttempt","outputs":[{"internalType":"address","name":"user","type":"address"},{"internalType":"uint256","name":"amount","type":"uint256"},{"internalType":"bool","name":"allowed","type":"bool"}],"stateMutability":"view","type":"function"},{"inputs":[],"name":"getWithdrawalAttempts","outputs":[{"components":[{"internalType":"address","name":"user","type":"address"},{"internalType":"uint256","name":"amount","type":"uint256"},{"internalType":"bool","name":"allowed","type":"bool"}],"internalType":"struct Guard.WithdrawalAttemptData[]","name":"","type":"tuple[]"}],"stateMutability":"view","type":"function"},{"inputs":[],"name":"getWithdrawalAttemptsCount","outputs":[{"internalType":"uint256","name":"","type":"uint256"}],"stateMutability":"view","type":"function"},{"inputs":[{"internalType":"uint256","name":"amount","type":"uint256"}],"name":"guardedWithdraw","outputs":[],"stateMutability":"nonpayable","type":"function"},{"inputs":[],"name":"isThreatDetected","outputs":[{"internalType":"bool","name":"","type":"bool"}],"stateMutability":"view","type":"function"},{"inputs":[],"name":"oracle","outputs":[{"internalType":"contract IOracle","name":"","type":"address"}],"stateMutability":"view","type":"function"},{"inputs":[],"name":"owner","outputs":[{"internalType":"address","name":"","type":"address"}],"stateMutability":"view","type":"function"},{"inputs":[{"internalType":"bool","name":"pause","type":"bool"}],"name":"pauseVault","outputs":[],"stateMutability":"nonpayable","type":"function"},{"inputs":[],"name":"paused","outputs":[{"internalType":"bool","name":"","type":"bool"}],"stateMutability":"view","type":"function"},{"inputs":[],"name":"renounceOwnership","outputs":[],"stateMutability":"nonpayable","type":"function"},{"inputs":[{"internalType":"uint256","name":"_withdrawThreshold","type":"uint256"}],"name":"setWithdrawThreshold","outputs":[],"stateMutability":"nonpayable","type":"function"},{"inputs":[{"internalType":"address","name":"newOwner","type":"address"}],"name":"transferOwnership","outputs":[],"stateMutability":"nonpayable","type":"function"},{"inputs":[],"name":"unpause","outputs":[],"stateMutability":"nonpayable","type":"function"},{"inputs":[],"name":"vault","outputs":[{"internalType":"contract IVault","name":"","type":"address"}],"stateMutability":"view","type":"function"},{"inputs":[{"internalType":"address","name":"user","type":"address"},{"internalType":"uint256","name":"amount","type":"uint256"}],"name":"withdrawFromVault","outputs":[],"stateMutability":"nonpayable","type":"function"},{"inputs":[],"name":"withdrawThreshold","outputs":[{"internalType":"uint256","name":"","type":"uint256"}],"stateMutability":"view","type":"function"},{"inputs":[{"internalType":"uint256","name":"","type":"uint256"}],"name":"withdrawalAttempts","outputs":[{"internalType":"address","name":"user","type":"address"},{"internalType":"uint256","name":"amount","type":"uint256"},{"internalType":"bool","name":"allowed","type":"bool"}],"stateMutability":"view","type":"function"}],"evm":{"bytecode":{"linkReferences":{},"object":"608060405234801561001057600080fd5b506040516117e43803806117e4833981810160405281019061003291906103a3565b33600073ffffffffffffffffffffffffffffffffffffffff168173ffffffffffffffffffffffffffffffffffffffff16036100a55760006040517f1e4fbdf700000000000000000000000000000000000000000000000000000000815260040161009c9190610405565b60405180910390fd5b6100b48161024660201b60201c565b5060018081905550600073ffffffffffffffffffffffffffffffffffffffff168373ffffffffffffffffffffffffffffffffffffffff160361012b576040517f08c379a00000000000000000000000000000000000000000000000000000000081526004016101229061047d565b60405180910390fd5b600073ffffffffffffffffffffffffffffffffffffffff168173ffffffffffffffffffffffffffffffffffffffff160361019a576040517f08c379a0000000000000000000000000000000000000000000000000000000008152600401610191906104e9565b60405180910390fd5b82600260006101000a81548173ffffffffffffffffffffffffffffffffffffffff021916908373ffffffffffffffffffffffffffffffffffffffff1602179055508160048190555080600360006101000a81548173ffffffffffffffffffffffffffffffffffffffff021916908373ffffffffffffffffffffffffffffffffffffffff1602179055506000600560006101000a81548160ff021916908315150217905550505050610509565b60008060009054906101000a900473ffffffffffffffffffffffffffffffffffffffff169050816000806101000a81548173ffffffffffffffffffffffffffffffffffffffff021916908373ffffffffffffffffffffffffffffffffffffffff1602179055508173ffffffffffffffffffffffffffffffffffffffff168173ffffffffffffffffffffffffffffffffffffffff167f8be0079c531659141344cd1fd0a4f28419497f9722a3daafe3b4186f6b6457e060405160405180910390a35050565b600080fd5b600073ffffffffffffffffffffffffffffffffffffffff82169050919050565b600061033a8261030f565b9050919050565b61034a8161032f565b811461035557600080fd5b50565b60008151905061036781610341565b92915050565b6000819050919050565b6103808161036d565b811461038b57600080fd5b50565b60008151905061039d81610377565b92915050565b6000806000606084860312156103bc576103bb61030a565b5b60006103ca86828701610358565b93505060206103db8682870161038e565b92505060406103ec86828701610358565b9150509250925092565b6103ff8161032f565b82525050565b600060208201905061041a60008301846103f6565b92915050565b600082825260208201905092915050565b7f47756172643a207a65726f207661756c74206164647265737300000000000000600082015250565b6000610467601983610420565b915061047282610431565b602082019050919050565b600060208201905081810360008301526104968161045a565b9050919050565b7f47756172643a207a65726f206f7261636c652061646472657373000000000000600082015250565b60006104d3601a83610420565b91506104de8261049d565b602082019050919050565b60006020820190508181036000830152610502816104c6565b9050919050565b6112cc806105186000396000f3fe608060405234801561001057600080fd5b50600436106101165760003560e01c80637dc0d1d0116100a2578063a5d5339e11610071578063a5d5339e1461029d578063c719460d146102bb578063f2fde38b146102d7578063fbfa77cf146102f3578063feefd7dd1461031157610116565b80637dc0d1d0146102275780638da5cb5b1461024557806391c26ef114610263578063960367981461028157610116565b80636161e0ce116100e95780636161e0ce14610191578063715018a6146101af578063760ee4c6146101b957806378db2eeb146101d75780637d0ef17c1461020957610116565b806321116f4e1461011b5780633f4ba83a146101375780635c975abb146101415780635e17a1c11461015f575b600080fd5b61013560048036038101906101309190610dad565b61032d565b005b61013f6103c8565b005b610149610419565b6040516101569190610e08565b60405180910390f35b61017960048036038101906101749190610e23565b610430565b60405161018893929190610e6e565b60405180910390f35b610199610497565b6040516101a69190610e08565b60405180910390f35b6101b7610539565b005b6101c161054d565b6040516101ce9190610ea5565b60405180910390f35b6101f160048036038101906101ec9190610e23565b610553565b60405161020093929190610e6e565b60405180910390f35b6102116105c7565b60405161021e9190610ea5565b60405180910390f35b61022f6105d4565b60405161023c9190610f1f565b60405180910390f35b61024d6105fa565b60405161025a9190610f3a565b60405180910390f35b61026b610623565b6040516102789190610ea5565b60405180910390f35b61029b60048036038101906102969190610f81565b6106bb565b005b6102a5610744565b6040516102b291906110cc565b60405180910390f35b6102d560048036038101906102d09190610e23565b61081e565b005b6102f160048036038101906102ec91906110ee565b610a79565b005b6102fb610aff565b604051610308919061113c565b60405180910390f35b61032b60048036038101906103269190610e23565b610b25565b005b610335610b72565b600260009054906101000a900473ffffffffffffffffffffffffffffffffffffffff1673ffffffffffffffffffffffffffffffffffffffff1663f3fef3a383836040518363ffffffff1660e01b8152600401610392929190611157565b600060405180830381600087803b1580156103ac57600080fd5b505af11580156103c0573d6000803e3d6000fd5b505050505050565b6103d0610b72565b6000600560006101000a81548160ff0219169083151502179055507fa45f47fdea8a1efdd9029a5691c7f759c32b7c698632b563573e155625d1693360405160405180910390a1565b6000600560009054906101000a900460ff16905090565b6006818154811061044057600080fd5b90600052602060002090600302016000915090508060000160009054906101000a900473ffffffffffffffffffffffffffffffffffffffff16908060010154908060020160009054906101000a900460ff16905083565b600080600360009054906101000a900473ffffffffffffffffffffffffffffffffffffffff1673ffffffffffffffffffffffffffffffffffffffff16636481c5e66040518163ffffffff1660e01b8152600401606060405180830381865afa158015610507573d6000803e3d6000fd5b505050506040513d601f19601f8201168201806040525081019061052b9190611195565b925050506002811191505090565b610541610b72565b61054b6000610bf9565b565b60045481565b6000806000806006858154811061056d5761056c6111e8565b5b906000526020600020906003020190508060000160009054906101000a900473ffffffffffffffffffffffffffffffffffffffff1681600101548260020160009054906101000a900460ff16935093509350509193909250565b6000600680549050905090565b600360009054906101000a900473ffffffffffffffffffffffffffffffffffffffff1681565b60008060009054906101000a900473ffffffffffffffffffffffffffffffffffffffff16905090565b6000600360009054906101000a900473ffffffffffffffffffffffffffffffffffffffff1673ffffffffffffffffffffffffffffffffffffffff16634c89867f6040518163ffffffff1660e01b8152600401602060405180830381865afa158015610692573d6000803e3d6000fd5b505050506040513d601f19601f820116820180604052508101906106b69190611217565b905090565b6106c3610b72565b80600560006101000a81548160ff0219169083151502179055508015610714577f9e87fac88ff661f02d44f95383c817fece4bce600a3dab7a54406878b965e75260405160405180910390a1610741565b7fa45f47fdea8a1efdd9029a5691c7f759c32b7c698632b563573e155625d1693360405160405180910390a15b50565b60606006805480602002602001604051908101604052809291908181526020016000905b8282101561081557838290600052602060002090600302016040518060600160405290816000820160009054906101000a900473ffffffffffffffffffffffffffffffffffffffff1673ffffffffffffffffffffffffffffffffffffffff1673ffffffffffffffffffffffffffffffffffffffff168152602001600182015481526020016002820160009054906101000a900460ff16151515158152505081526020019060010190610768565b50505050905090565b600560009054906101000a900460ff1615610865576040517feced32bc00000000000000000000000000000000000000000000000000000000815260040160405180910390fd5b61086d610cbd565b60006004548211159050600660405180606001604052803373ffffffffffffffffffffffffffffffffffffffff168152602001848152602001831515815250908060018154018082558091505060019003906000526020600020906003020160009091909190915060008201518160000160006101000a81548173ffffffffffffffffffffffffffffffffffffffff021916908373ffffffffffffffffffffffffffffffffffffffff1602179055506020820151816001015560408201518160020160006101000a81548160ff02191690831515021790555050503373ffffffffffffffffffffffffffffffffffffffff167fce8f41a4bac870c7fdc418d8673aecbab6aa9657bb910452705f910c6c06b8438383604051610990929190611244565b60405180910390a2806109de57816004546040517fb4ed2d2b0000000000000000000000000000000000000000000000000000000081526004016109d592919061126d565b60405180910390fd5b600260009054906101000a900473ffffffffffffffffffffffffffffffffffffffff1673ffffffffffffffffffffffffffffffffffffffff1663f3fef3a333846040518363ffffffff1660e01b8152600401610a3b929190611157565b600060405180830381600087803b158015610a5557600080fd5b505af1158015610a69573d6000803e3d6000fd5b5050505050610a76610d03565b50565b610a81610b72565b600073ffffffffffffffffffffffffffffffffffffffff168173ffffffffffffffffffffffffffffffffffffffff1603610af35760006040517f1e4fbdf7000000000000000000000000000000000000000000000000000000008152600401610aea9190610f3a565b60405180910390fd5b610afc81610bf9565b50565b600260009054906101000a900473ffffffffffffffffffffffffffffffffffffffff1681565b610b2d610b72565b7f851290b73f28d38db30ac929f2e6490b1e1cc009313cc865ff78938e54baedb260045482604051610b6092919061126d565b60405180910390a18060048190555050565b610b7a610d0c565b73ffffffffffffffffffffffffffffffffffffffff16610b986105fa565b73ffffffffffffffffffffffffffffffffffffffff1614610bf757610bbb610d0c565b6040517f118cdaa7000000000000000000000000000000000000000000000000000000008152600401610bee9190610f3a565b60405180910390fd5b565b60008060009054906101000a900473ffffffffffffffffffffffffffffffffffffffff169050816000806101000a81548173ffffffffffffffffffffffffffffffffffffffff021916908373ffffffffffffffffffffffffffffffffffffffff1602179055508173ffffffffffffffffffffffffffffffffffffffff168173ffffffffffffffffffffffffffffffffffffffff167f8be0079c531659141344cd1fd0a4f28419497f9722a3daafe3b4186f6b6457e060405160405180910390a35050565b600260015403610cf9576040517f3ee5aeb500000000000000000000000000000000000000000000000000000000815260040160405180910390fd5b6002600181905550565b60018081905550565b600033905090565b600080fd5b600073ffffffffffffffffffffffffffffffffffffffff82169050919050565b6000610d4482610d19565b9050919050565b610d5481610d39565b8114610d5f57600080fd5b50565b600081359050610d7181610d4b565b92915050565b6000819050919050565b610d8a81610d77565b8114610d9557600080fd5b50565b600081359050610da781610d81565b92915050565b60008060408385031215610dc457610dc3610d14565b5b6000610dd285828601610d62565b9250506020610de385828601610d98565b9150509250929050565b60008115159050919050565b610e0281610ded565b82525050565b6000602082019050610e1d6000830184610df9565b92915050565b600060208284031215610e3957610e38610d14565b5b6000610e4784828501610d98565b91505092915050565b610e5981610d39565b82525050565b610e6881610d77565b82525050565b6000606082019050610e836000830186610e50565b610e906020830185610e5f565b610e9d6040830184610df9565b949350505050565b6000602082019050610eba6000830184610e5f565b92915050565b6000819050919050565b6000610ee5610ee0610edb84610d19565b610ec0565b610d19565b9050919050565b6000610ef782610eca565b9050919050565b6000610f0982610eec565b9050919050565b610f1981610efe565b82525050565b6000602082019050610f346000830184610f10565b92915050565b6000602082019050610f4f6000830184610e50565b92915050565b610f5e81610ded565b8114610f6957600080fd5b50565b600081359050610f7b81610f55565b92915050565b600060208284031215610f9757610f96610d14565b5b6000610fa584828501610f6c565b91505092915050565b600081519050919050565b600082825260208201905092915050565b6000819050602082019050919050565b610fe381610d39565b82525050565b610ff281610d77565b82525050565b61100181610ded565b82525050565b60608201600082015161101d6000850182610fda565b5060208201516110306020850182610fe9565b5060408201516110436040850182610ff8565b50505050565b60006110558383611007565b60608301905092915050565b6000602082019050919050565b600061107982610fae565b6110838185610fb9565b935061108e83610fca565b8060005b838110156110bf5781516110a68882611049565b97506110b183611061565b925050600181019050611092565b5085935050505092915050565b600060208201905081810360008301526110e6818461106e565b905092915050565b60006020828403121561110457611103610d14565b5b600061111284828501610d62565b91505092915050565b600061112682610eec565b9050919050565b6111368161111b565b82525050565b6000602082019050611151600083018461112d565b92915050565b600060408201905061116c6000830185610e50565b6111796020830184610e5f565b9392505050565b60008151905061118f81610d81565b92915050565b6000806000606084860312156111ae576111ad610d14565b5b60006111bc86828701611180565b93505060206111cd86828701611180565b92505060406111de86828701611180565b9150509250925092565b7f4e487b7100000000000000000000000000000000000000000000000000000000600052603260045260246000fd5b60006020828403121561122d5761122c610d14565b5b600061123b84828501611180565b91505092915050565b60006040820190506112596000830185610e5f565b6112666020830184610df9565b9392505050565b60006040820190506112826000830185610e5f565b61128f6020830184610e5f565b939250505056fea26469706673582212202736428610f914bfd4ddacd8d0fabd5175af1e409472d1a71402212c7a23611364736f6c634300081c0033","opcodes":"PUSH1 0x80 PUSH1 0x40 MSTORE CALLVALUE DUP1 ISZERO PUSH2 0x10 JUMPI PUSH1 0x0 DUP1 REVERT JUMPDEST POP PUSH1 0x40 MLOAD PUSH2 0x17E4 CODESIZE SUB DUP1 PUSH2 0x17E4 DUP4 CODECOPY DUP2 DUP2 ADD PUSH1 0x40 MSTORE DUP2 ADD SWAP1 PUSH2 0x32 SWAP2 SWAP1 PUSH2 0x3A3 JUMP JUMPDEST CALLER PUSH1 0x0 PUSH20 0xFFFFFFFFFFFFFFFFFFFFFFFFFFFFFFFFFFFFFFFF AND DUP2 PUSH20 0xFFFFFFFFFFFFFFFFFFFFFFFFFFFFFFFFFFFFFFFF AND SUB PUSH2 0xA5 JUMPI PUSH1 0x0 PUSH1 0x40 MLOAD PUSH32 0x1E4FBDF700000000000000000000000000000000000000000000000000000000 DUP2 MSTORE PUSH1 0x4 ADD PUSH2 0x9C SWAP2 SWAP1 PUSH2 0x405 JUMP JUMPDEST PUSH1 0x40 MLOAD DUP1 SWAP2 SUB SWAP1 REVERT JUMPDEST PUSH2 0xB4 DUP2 PUSH2 0x246 PUSH1 0x20 SHL PUSH1 0x20 SHR JUMP JUMPDEST POP PUSH1 0x1 DUP1 DUP2 SWAP1 SSTORE POP PUSH1 0x0 PUSH20 0xFFFFFFFFFFFFFFFFFFFFFFFFFFFFFFFFFFFFFFFF AND DUP4 PUSH20 0xFFFFFFFFFFFFFFFFFFFFFFFFFFFFFFFFFFFFFFFF AND SUB PUSH2 0x12B JUMPI PUSH1 0x40 MLOAD PUSH32 0x8C379A000000000000000000000000000000000000000000000000000000000 DUP2 MSTORE PUSH1 0x4 ADD PUSH2 0x122 SWAP1 PUSH2 0x47D JUMP JUMPDEST PUSH1 0x40 MLOAD DUP1 SWAP2 SUB SWAP1 REVERT JUMPDEST PUSH1 0x0 PUSH20 0xFFFFFFFFFFFFFFFFFFFFFFFFFFFFFFFFFFFFFFFF AND DUP2 PUSH20 0xFFFFFFFFFFFFFFFFFFFFFFFFFFFFFFFFFFFFFFFF AND SUB PUSH2 0x19A JUMPI PUSH1 0x40 MLOAD PUSH32 0x8C379A000000000000000000000000000000000000000000000000000000000 DUP2 MSTORE PUSH1 0x4 ADD PUSH2 0x191 SWAP1 PUSH2 0x4E9 JUMP JUMPDEST PUSH1 0x40 MLOAD DUP1 SWAP2 SUB SWAP1 REVERT JUMPDEST DUP3 PUSH1 0x2 PUSH1 0x0 PUSH2 0x100 EXP DUP2 SLOAD DUP2 PUSH20 0xFFFFFFFFFFFFFFFFFFFFFFFFFFFFFFFFFFFFFFFF MUL NOT AND SWAP1 DUP4 PUSH20 0xFFFFFFFFFFFFFFFFFFFFFFFFFFFFFFFFFFFFFFFF AND MUL OR SWAP1 SSTORE POP DUP2 PUSH1 0x4 DUP2 SWAP1 SSTORE POP DUP1 PUSH1 0x3 PUSH1 0x0 PUSH2 0x100 EXP DUP2 SLOAD DUP2 PUSH20 0xFFFFFFFFFFFFFFFFFFFFFFFFFFFFFFFFFFFFFFFF MUL NOT AND SWAP1 DUP4 PUSH20 0xFFFFFFFFFFFFFFFFFFFFFFFFFFFFFFFFFFFFFFFF AND MUL OR SWAP1 SSTORE POP PUSH1 0x0 PUSH1 0x5 PUSH1 0x0 PUSH2 0x100 EXP DUP2 SLOAD DUP2 PUSH1 0xFF MUL NOT AND SWAP1 DUP4 ISZERO ISZERO MUL OR SWAP1 SSTORE POP POP POP POP PUSH2 0x509 JUMP JUMPDEST PUSH1 0x0 DUP1 PUSH1 0x0 SWAP1 SLOAD SWAP1 PUSH2 0x100 EXP SWAP1 DIV PUSH20 0xFFFFFFFFFFFFFFFFFFFFFFFFFFFFFFFFFFFFFFFF AND SWAP1 POP DUP2 PUSH1 0x0 DUP1 PUSH2 0x100 EXP DUP2 SLOAD DUP2 PUSH20 0xFFFFFFFFFFFFFFFFFFFFFFFFFFFFFFFFFFFFFFFF MUL NOT AND SWAP1 DUP4 PUSH20 0xFFFFFFFFFFFFFFFFFFFFFFFFFFFFFFFFFFFFFFFF AND MUL OR SWAP1 SSTORE POP DUP2 PUSH20 0xFFFFFFFFFFFFFFFFFFFFFFFFFFFFFFFFFFFFFFFF AND DUP2 PUSH20 0xFFFFFFFFFFFFFFFFFFFFFFFFFFFFFFFFFFFFFFFF AND PUSH32 0x8BE0079C531659141344CD1FD0A4F28419497F9722A3DAAFE3B4186F6B6457E0 PUSH1 0x40 MLOAD PUSH1 0x40 MLOAD DUP1 SWAP2 SUB SWAP1 LOG3 POP POP JUMP JUMPDEST PUSH1 0x0 DUP1 REVERT JUMPDEST PUSH1 0x0 PUSH20 0xFFFFFFFFFFFFFFFFFFFFFFFFFFFFFFFFFFFFFFFF DUP3 AND SWAP1 POP SWAP2 SWAP1 POP JUMP JUMPDEST PUSH1 0x0 PUSH2 0x33A DUP3 PUSH2 0x30F JUMP JUMPDEST SWAP1 POP SWAP2 SWAP1 POP JUMP JUMPDEST PUSH2 0x34A DUP2 PUSH2 0x32F JUMP JUMPDEST DUP2 EQ PUSH2 0x355 JUMPI PUSH1 0x0 DUP1 REVERT JUMPDEST POP JUMP JUMPDEST PUSH1 0x0 DUP2 MLOAD SWAP1 POP PUSH2 0x367 DUP2 PUSH2 0x341 JUMP JUMPDEST SWAP3 SWAP2 POP POP JUMP JUMPDEST PUSH1 0x0 DUP2 SWAP1 POP SWAP2 SWAP1 POP JUMP JUMPDEST PUSH2 0x380 DUP2 PUSH2 0x36D JUMP JUMPDEST DUP2 EQ PUSH2 0x38B JUMPI PUSH1 0x0 DUP1 REVERT JUMPDEST POP JUMP JUMPDEST PUSH1 0x0 DUP2 MLOAD SWAP1 POP PUSH2 0x39D DUP2 PUSH2 0x377 JUMP JUMPDEST SWAP3 SWAP2 POP POP JUMP JUMPDEST PUSH1 0x0 DUP1 PUSH1 0x0 PUSH1 0x60 DUP5 DUP7 SUB SLT ISZERO PUSH2 0x3BC JUMPI PUSH2 0x3BB PUSH2 0x30A JUMP JUMPDEST JUMPDEST PUSH1 0x0 PUSH2 0x3CA DUP7 DUP3 DUP8 ADD PUSH2 0x358 JUMP JUMPDEST SWAP4 POP POP PUSH1 0x20 PUSH2 0x3DB DUP7 DUP3 DUP8 ADD PUSH2 0x38E JUMP JUMPDEST SWAP3 POP POP PUSH1 0x40 PUSH2 0x3EC DUP7 DUP3 DUP8 ADD PUSH2 0x358 JUMP JUMPDEST SWAP2 POP POP SWAP3 POP SWAP3 POP SWAP3 JUMP JUMPDEST PUSH2 0x3FF DUP2 PUSH2 0x32F JUMP JUMPDEST DUP3 MSTORE POP POP JUMP JUMPDEST PUSH1 0x0 PUSH1 0x20 DUP3 ADD SWAP1 POP PUSH2 0x41A PUSH1 0x0 DUP4 ADD DUP5 PUSH2 0x3F6 JUMP JUMPDEST SWAP3 SWAP2 POP POP JUMP JUMPDEST PUSH1 0x0 DUP3 DUP3 MSTORE PUSH1 0x20 DUP3 ADD SWAP1 POP SWAP3 SWAP2 POP POP JUMP JUMPDEST PUSH32 0x47756172643A207A65726F207661756C74206164647265737300000000000000 PUSH1 0x0 DUP3 ADD MSTORE POP JUMP JUMPDEST PUSH1 0x0 PUSH2 0x467 PUSH1 0x19 DUP4 PUSH2 0x420 JUMP JUMPDEST SWAP2 POP PUSH2 0x472 DUP3 PUSH2 0x431 JUMP JUMPDEST PUSH1 0x20 DUP3 ADD SWAP1 POP SWAP2 SWAP1 POP JUMP JUMPDEST PUSH1 0x0 PUSH1 0x20 DUP3 ADD SWAP1 POP DUP2 DUP2 SUB PUSH1 0x0 DUP4 ADD MSTORE PUSH2 0x496 DUP2 PUSH2 0x45A JUMP JUMPDEST SWAP1 POP SWAP2 SWAP1 POP JUMP JUMPDEST PUSH32 0x47756172643A207A65726F206F7261636C652061646472657373000000000000 PUSH1 0x0 DUP3 ADD MSTORE POP JUMP JUMPDEST PUSH1 0x0 PUSH2 0x4D3 PUSH1 0x1A DUP4 PUSH2 0x420 JUMP JUMPDEST SWAP2 POP PUSH2 0x4DE DUP3 PUSH2 0x49D JUMP JUMPDEST PUSH1 0x20 DUP3 ADD SWAP1 POP SWAP2 SWAP1 POP JUMP JUMPDEST PUSH1 0x0 PUSH1 0x20 DUP3 ADD SWAP1 POP DUP2 DUP2 SUB PUSH1 0x0 DUP4 ADD MSTORE PUSH2 0x502 DUP2 PUSH2 0x4C6 JUMP JUMPDEST SWAP1 POP SWAP2 SWAP1 POP JUMP JUMPDEST PUSH2 0x12CC DUP1 PUSH2 0x518 PUSH1 0x0 CODECOPY PUSH1 0x0 RETURN INVALID PUSH1 0x80 PUSH1 0x40 MSTORE CALLVALUE DUP1 ISZERO PUSH2 0x10 JUMPI PUSH1 0x0 DUP1 REVERT JUMPDEST POP PUSH1 0x4 CALLDATASIZE LT PUSH2 0x116 JUMPI PUSH1 0x0 CALLDATALOAD PUSH1 0xE0 SHR DUP1 PUSH4 0x7DC0D1D0 GT PUSH2 0xA2 JUMPI DUP1 PUSH4 0xA5D5339E GT PUSH2 0x71 JUMPI DUP1 PUSH4 0xA5D5339E EQ PUSH2 0x29D JUMPI DUP1 PUSH4 0xC719460D EQ PUSH2 0x2BB JUMPI DUP1 PUSH4 0xF2FDE38B EQ PUSH2 0x2D7 JUMPI DUP1 PUSH4 0xFBFA77CF EQ PUSH2 0x2F3 JUMPI DUP1 PUSH4 0xFEEFD7DD EQ PUSH2 0x311 JUMPI PUSH2 0x116 JUMP JUMPDEST DUP1 PUSH4 0x7DC0D1D0 EQ PUSH2 0x227 JUMPI DUP1 PUSH4 0x8DA5CB5B EQ PUSH2 0x245 JUMPI DUP1 PUSH4 0x91C26EF1 EQ PUSH2 0x263 JUMPI DUP1 PUSH4 0x96036798 EQ PUSH2 0x281 JUMPI PUSH2 0x116 JUMP JUMPDEST DUP1 PUSH4 0x6161E0CE GT PUSH2 0xE9 JUMPI DUP1 PUSH4 0x6161E0CE EQ PUSH2 0x191 JUMPI DUP1 PUSH4 0x715018A6 EQ PUSH2 0x1AF JUMPI DUP1 PUSH4 0x760EE4C6 EQ PUSH2 0x1B9 JUMPI DUP1 PUSH4 0x78DB2EEB EQ PUSH2 0x1D7 JUMPI DUP1 PUSH4 0x7D0EF17C EQ PUSH2 0x209 JUMPI PUSH2 0x116 JUMP JUMPDEST DUP1 PUSH4 0x21116F4E EQ PUSH2 0x11B JUMPI DUP1 PUSH4 0x3F4BA83A EQ PUSH2 0x137 JUMPI DUP1 PUSH4 0x5C975ABB EQ PUSH2 0x141 JUMPI DUP1 PUSH4 0x5E17A1C1 EQ PUSH2 0x15F JUMPI JUMPDEST PUSH1 0x0 DUP1 REVERT JUMPDEST PUSH2 0x135 PUSH1 0x4 DUP1 CALLDATASIZE SUB DUP2 ADD SWAP1 PUSH2 0x130 SWAP2 SWAP1 PUSH2 0xDAD JUMP JUMPDEST PUSH2 0x32D JUMP JUMPDEST STOP JUMPDEST PUSH2 0x13F PUSH2 0x3C8 JUMP JUMPDEST STOP JUMPDEST PUSH2 0x149 PUSH2 0x419 JUMP JUMPDEST PUSH1 0x40 MLOAD PUSH2 0x156 SWAP2 SWAP1 PUSH2 0xE08 JUMP JUMPDEST PUSH1 0x40 MLOAD DUP1 SWAP2 SUB SWAP1 RETURN JUMPDEST PUSH2 0x179 PUSH1 0x4 DUP1 CALLDATASIZE SUB DUP2 ADD SWAP1 PUSH2 0x174 SWAP2 SWAP1 PUSH2 0xE23 JUMP JUMPDEST PUSH2 0x430 JUMP JUMPDEST PUSH1 0x40 MLOAD PUSH2 0x188 SWAP4 SWAP3 SWAP2 SWAP1 PUSH2 0xE6E JUMP JUMPDEST PUSH1 0x40 MLOAD DUP1 SWAP2 SUB SWAP1 RETURN JUMPDEST PUSH2 0x199 PUSH2 0x497 JUMP JUMPDEST PUSH1 0x40 MLOAD PUSH2 0x1A6 SWAP2 SWAP1 PUSH2 0xE08 JUMP JUMPDEST PUSH1 0x40 MLOAD DUP1 SWAP2 SUB SWAP1 RETURN JUMPDEST PUSH2 0x1B7 PUSH2 0x539 JUMP JUMPDEST STOP JUMPDEST PUSH2 0x1C1 PUSH2 0x54D JUMP JUMPDEST PUSH1 0x40 MLOAD PUSH2 0x1CE SWAP2 SWAP1 PUSH2 0xEA5 JUMP JUMPDEST PUSH1 0x40 MLOAD DUP1 SWAP2 SUB SWAP1 RETURN JUMPDEST PUSH2 0x1F1 PUSH1 0x4 DUP1 CALLDATASIZE SUB DUP2 ADD SWAP1 PUSH2 0x1EC SWAP2 SWAP1 PUSH2 0xE23 JUMP JUMPDEST PUSH2 0x553 JUMP JUMPDEST PUSH1 0x40 MLOAD PUSH2 0x200 SWAP4 SWAP3 SWAP2 SWAP1 PUSH2 0xE6E JUMP JUMPDEST PUSH1 0x40 MLOAD DUP1 SWAP2 SUB SWAP1 RETURN JUMPDEST PUSH2 0x211 PUSH2 0x5C7 JUMP JUMPDEST PUSH1 0x40 MLOAD PUSH2 0x21E SWAP2 SWAP1 PUSH2 0xEA5 JUMP JUMPDEST PUSH1 0x40 MLOAD DUP1 SWAP2 SUB SWAP1 RETURN JUMPDEST PUSH2 0x22F PUSH2 0x5D4 JUMP JUMPDEST PUSH1 0x40 MLOAD PUSH2 0x23C SWAP2 SWAP1 PUSH2 0xF1F JUMP JUMPDEST PUSH1 0x40 MLOAD DUP1 SWAP2 SUB SWAP1 RETURN JUMPDEST PUSH2 0x24D PUSH2 0x5FA JUMP JUMPDEST PUSH1 0x40 MLOAD PUSH2 0x25A SWAP2 SWAP1 PUSH2 0xF3A JUMP JUMPDEST PUSH1 0x40 MLOAD DUP1 SWAP2 SUB SWAP1 RETURN JUMPDEST PUSH2 0x26B PUSH2 0x623 JUMP JUMPDEST PUSH1 0x40 MLOAD PUSH2 0x278 SWAP2 SWAP1 PUSH2 0xEA5 JUMP JUMPDEST PUSH1 0x40 MLOAD DUP1 SWAP2 SUB SWAP1 RETURN JUMPDEST PUSH2 0x29B PUSH1 0x4 DUP1 CALLDATASIZE SUB DUP2 ADD SWAP1 PUSH2 0x296 SWAP2 SWAP1 PUSH2 0xF81 JUMP JUMPDEST PUSH2 0x6BB JUMP JUMPDEST STOP JUMPDEST PUSH2 0x2A5 PUSH2 0x744 JUMP JUMPDEST PUSH1 0x40 MLOAD PUSH2 0x2B2 SWAP2 SWAP1 PUSH2 0x10CC JUMP JUMPDEST PUSH1 0x40 MLOAD DUP1 SWAP2 SUB SWAP1 RETURN JUMPDEST PUSH2 0x2D5 PUSH1 0x4 DUP1 CALLDATASIZE SUB DUP2 ADD SWAP1 PUSH2 0x2D0 SWAP2 SWAP1 PUSH2 0xE23 JUMP JUMPDEST PUSH2 0x81E JUMP JUMPDEST STOP JUMPDEST PUSH2 0x2F1 PUSH1 0x4 DUP1 CALLDATASIZE SUB DUP2 ADD SWAP1 PUSH2 0x2EC SWAP2 SWAP1 PUSH2 0x10EE JUMP JUMPDEST PUSH2 0xA79 JUMP JUMPDEST STOP JUMPDEST PUSH2 0x2FB PUSH2 0xAFF JUMP JUMPDEST PUSH1 0x40 MLOAD PUSH2 0x308 SWAP2 SWAP1 PUSH2 0x113C JUMP JUMPDEST PUSH1 0x40 MLOAD DUP1 SWAP2 SUB SWAP1 RETURN JUMPDEST PUSH2 0x32B PUSH1 0x4 DUP1 CALLDATASIZE SUB DUP2 ADD SWAP1 PUSH2 0x326 SWAP2 SWAP1 PUSH2 0xE23 JUMP JUMPDEST PUSH2 0xB25 JUMP JUMPDEST STOP JUMPDEST PUSH2 0x335 PUSH2 0xB72 JUMP JUMPDEST PUSH1 0x2 PUSH1 0x0 SWAP1 SLOAD SWAP1 PUSH2 0x100 EXP SWAP1 DIV PUSH20 0xFFFFFFFFFFFFFFFFFFFFFFFFFFFFFFFFFFFFFFFF AND PUSH20 0xFFFFFFFFFFFFFFFFFFFFFFFFFFFFFFFFFFFFFFFF AND PUSH4 0xF3FEF3A3 DUP4 DUP4 PUSH1 0x40 MLOAD DUP4 PUSH4 0xFFFFFFFF AND PUSH1 0xE0 SHL DUP2 MSTORE PUSH1 0x4 ADD PUSH2 0x392 SWAP3 SWAP2 SWAP1 PUSH2 0x1157 JUMP JUMPDEST PUSH1 0x0 PUSH1 0x40 MLOAD DUP1 DUP4 SUB DUP2 PUSH1 0x0 DUP8 DUP1 EXTCODESIZE ISZERO DUP1 ISZERO PUSH2 0x3AC JUMPI PUSH1 0x0 DUP1 REVERT JUMPDEST POP GAS CALL ISZERO DUP1 ISZERO PUSH2 0x3C0 JUMPI RETURNDATASIZE PUSH1 0x0 DUP1 RETURNDATACOPY RETURNDATASIZE PUSH1 0x0 REVERT JUMPDEST POP POP POP POP POP POP JUMP JUMPDEST PUSH2 0x3D0 PUSH2 0xB72 JUMP JUMPDEST PUSH1 0x0 PUSH1 0x5 PUSH1 0x0 PUSH2 0x100 EXP DUP2 SLOAD DUP2 PUSH1 0xFF MUL NOT AND SWAP1 DUP4 ISZERO ISZERO MUL OR SWAP1 SSTORE POP PUSH32 0xA45F47FDEA8A1EFDD9029A5691C7F759C32B7C698632B563573E155625D16933 PUSH1 0x40 MLOAD PUSH1 0x40 MLOAD DUP1 SWAP2 SUB SWAP1 LOG1 JUMP JUMPDEST PUSH1 0x0 PUSH1 0x5 PUSH1 0x0 SWAP1 SLOAD SWAP1 PUSH2 0x100 EXP SWAP1 DIV PUSH1 0xFF AND SWAP1 POP SWAP1 JUMP JUMPDEST PUSH1 0x6 DUP2 DUP2 SLOAD DUP2 LT PUSH2 0x440 JUMPI PUSH1 0x0 DUP1 REVERT JUMPDEST SWAP1 PUSH1 0x0 MSTORE PUSH1 0x20 PUSH1 0x0 KECCAK256 SWAP1 PUSH1 0x3 MUL ADD PUSH1 0x0 SWAP2 POP SWAP1 POP DUP1 PUSH1 0x0 ADD PUSH1 0x0 SWAP1 SLOAD SWAP1 PUSH2 0x100 EXP SWAP1 DIV PUSH20 0xFFFFFFFFFFFFFFFFFFFFFFFFFFFFFFFFFFFFFFFF AND SWAP1 DUP1 PUSH1 0x1 ADD SLOAD SWAP1 DUP1 PUSH1 0x2 ADD PUSH1 0x0 SWAP1 SLOAD SWAP1 PUSH2 0x100 EXP SWAP1 DIV PUSH1 0xFF AND SWAP1 POP DUP4 JUMP JUMPDEST PUSH1 0x0 DUP1 PUSH1 0x3 PUSH1 0x0 SWAP1 SLOAD SWAP1 PUSH2 0x100 EXP SWAP1 DIV PUSH20 0xFFFFFFFFFFFFFFFFFFFFFFFFFFFFFFFFFFFFFFFF AND PUSH20 0xFFFFFFFFFFFFFFFFFFFFFFFFFFFFFFFFFFFFFFFF AND PUSH4 0x6481C5E6 PUSH1 0x40 MLOAD DUP2 PUSH4 0xFFFFFFFF AND PUSH1 0xE0 SHL DUP2 MSTORE PUSH1 0x4 ADD PUSH1 0x60 PUSH1 0x40 MLOAD DUP1 DUP4 SUB DUP2 DUP7 GAS STATICCALL ISZERO DUP1 ISZERO PUSH2 0x507 JUMPI RETURNDATASIZE PUSH1 0x0 DUP1 RETURNDATACOPY RETURNDATASIZE PUSH1 0x0 REVERT JUMPDEST POP POP POP POP PUSH1 0x40 MLOAD RETURNDATASIZE PUSH1 0x1F NOT PUSH1 0x1F DUP3 ADD AND DUP3 ADD DUP1 PUSH1 0x40 MSTORE POP DUP2 ADD SWAP1 PUSH2 0x52B SWAP2 SWAP1 PUSH2 0x1195 JUMP JUMPDEST SWAP3 POP POP POP PUSH1 0x2 DUP2 GT SWAP2 POP POP SWAP1 JUMP JUMPDEST PUSH2 0x541 PUSH2 0xB72 JUMP JUMPDEST PUSH2 0x54B PUSH1 0x0 PUSH2 0xBF9 JUMP JUMPDEST JUMP JUMPDEST PUSH1 0x4 SLOAD DUP2 JUMP JUMPDEST PUSH1 0x0 DUP1 PUSH1 0x0 DUP1 PUSH1 0x6 DUP6 DUP2 SLOAD DUP2 LT PUSH2 0x56D JUMPI PUSH2 0x56C PUSH2 0x11E8 JUMP JUMPDEST JUMPDEST SWAP1 PUSH1 0x0 MSTORE PUSH1 0x20 PUSH1 0x0 KECCAK256 SWAP1 PUSH1 0x3 MUL ADD SWAP1 POP DUP1 PUSH1 0x0 ADD PUSH1 0x0 SWAP1 SLOAD SWAP1 PUSH2 0x100 EXP SWAP1 DIV PUSH20 0xFFFFFFFFFFFFFFFFFFFFFFFFFFFFFFFFFFFFFFFF AND DUP2 PUSH1 0x1 ADD SLOAD DUP3 PUSH1 0x2 ADD PUSH1 0x0 SWAP1 SLOAD SWAP1 PUSH2 0x100 EXP SWAP1 DIV PUSH1 0xFF AND SWAP4 POP SWAP4 POP SWAP4 POP POP SWAP2 SWAP4 SWAP1 SWAP3 POP JUMP JUMPDEST PUSH1 0x0 PUSH1 0x6 DUP1 SLOAD SWAP1 POP SWAP1 POP SWAP1 JUMP JUMPDEST PUSH1 0x3 PUSH1 0x0 SWAP1 SLOAD SWAP1 PUSH2 0x100 EXP SWAP1 DIV PUSH20 0xFFFFFFFFFFFFFFFFFFFFFFFFFFFFFFFFFFFFFFFF AND DUP2 JUMP JUMPDEST PUSH1 0x0 DUP1 PUSH1 0x0 SWAP1 SLOAD SWAP1 PUSH2 0x100 EXP SWAP1 DIV PUSH20 0xFFFFFFFFFFFFFFFFFFFFFFFFFFFFFFFFFFFFFFFF AND SWAP1 POP SWAP1 JUMP JUMPDEST PUSH1 0x0 PUSH1 0x3 PUSH1 0x0 SWAP1 SLOAD SWAP1 PUSH2 0x100 EXP SWAP1 DIV PUSH20 0xFFFFFFFFFFFFFFFFFFFFFFFFFFFFFFFFFFFFFFFF AND PUSH20 0xFFFFFFFFFFFFFFFFFFFFFFFFFFFFFFFFFFFFFFFF AND PUSH4 0x4C89867F PUSH1 0x40 MLOAD DUP2 PUSH4 0xFFFFFFFF AND PUSH1 0xE0 SHL DUP2 MSTORE PUSH1 0x4 ADD PUSH1 0x20 PUSH1 0x40 MLOAD DUP1 DUP4 SUB DUP2 DUP7 GAS STATICCALL ISZERO DUP1 ISZERO PUSH2 0x692 JUMPI RETURNDATASIZE PUSH1 0x0 DUP1 RETURNDATACOPY RETURNDATASIZE PUSH1 0x0 REVERT JUMPDEST POP POP POP POP PUSH1 0x40 MLOAD RETURNDATASIZE PUSH1 0x1F NOT PUSH1 0x1F DUP3 ADD AND DUP3 ADD DUP1 PUSH1 0x40 MSTORE POP DUP2 ADD SWAP1 PUSH2 0x6B6 SWAP2 SWAP1 PUSH2 0x1217 JUMP JUMPDEST SWAP1 POP SWAP1 JUMP JUMPDEST PUSH2 0x6C3 PUSH2 0xB72 JUMP JUMPDEST DUP1 PUSH1 0x5 PUSH1 0x0 PUSH2 0x100 EXP DUP2 SLOAD DUP2 PUSH1 0xFF MUL NOT AND SWAP1 DUP4 ISZERO ISZERO MUL OR SWAP1 SSTORE POP DUP1 ISZERO PUSH2 0x714 JUMPI PUSH32 0x9E87FAC88FF661F02D44F95383C817FECE4BCE600A3DAB7A54406878B965E752 PUSH1 0x40 MLOAD PUSH1 0x40 MLOAD DUP1 SWAP2 SUB SWAP1 LOG1 PUSH2 0x741 JUMP JUMPDEST PUSH32 0xA45F47FDEA8A1EFDD9029A5691C7F759C32B7C698632B563573E155625D16933 PUSH1 0x40 MLOAD PUSH1 0x40 MLOAD DUP1 SWAP2 SUB SWAP1 LOG1 JUMPDEST POP JUMP JUMPDEST PUSH1 0x60 PUSH1 0x6 DUP1 SLOAD DUP1 PUSH1 0x20 MUL PUSH1 0x20 ADD PUSH1 0x40 MLOAD SWAP1 DUP2 ADD PUSH1 0x40 MSTORE DUP1 SWAP3 SWAP2 SWAP1 DUP2 DUP2 MSTORE PUSH1 0x20 ADD PUSH1 0x0 SWAP1 JUMPDEST DUP3 DUP3 LT ISZERO PUSH2 0x815 JUMPI DUP4 DUP3 SWAP1 PUSH1 0x0 MSTORE PUSH1 0x20 PUSH1 0x0 KECCAK256 SWAP1 PUSH1 0x3 MUL ADD PUSH1 0x40 MLOAD DUP1 PUSH1 0x60 ADD PUSH1 0x40 MSTORE SWAP1 DUP2 PUSH1 0x0 DUP3 ADD PUSH1 0x0 SWAP1 SLOAD SWAP1 PUSH2 0x100 EXP SWAP1 DIV PUSH20 0xFFFFFFFFFFFFFFFFFFFFFFFFFFFFFFFFFFFFFFFF AND PUSH20 0xFFFFFFFFFFFFFFFFFFFFFFFFFFFFFFFFFFFFFFFF AND PUSH20 0xFFFFFFFFFFFFFFFFFFFFFFFFFFFFFFFFFFFFFFFF AND DUP2 MSTORE PUSH1 0x20 ADD PUSH1 0x1 DUP3 ADD SLOAD DUP2 MSTORE PUSH1 0x20 ADD PUSH1 0x2 DUP3 ADD PUSH1 0x0 SWAP1 SLOAD SWAP1 PUSH2 0x100 EXP SWAP1 DIV PUSH1 0xFF AND ISZERO ISZERO ISZERO ISZERO DUP2 MSTORE POP POP DUP2 MSTORE PUSH1 0x20 ADD SWAP1 PUSH1 0x1 ADD SWAP1 PUSH2 0x768 JUMP JUMPDEST POP POP POP POP SWAP1 POP SWAP1 JUMP JUMPDEST PUSH1 0x5 PUSH1 0x0 SWAP1 SLOAD SWAP1 PUSH2 0x100 EXP SWAP1 DIV PUSH1 0xFF AND ISZERO PUSH2 0x865 JUMPI PUSH1 0x40 MLOAD PUSH32 0xECED32BC00000000000000000000000000000000000000000000000000000000 DUP2 MSTORE PUSH1 0x4 ADD PUSH1 0x40 MLOAD DUP1 SWAP2 SUB SWAP1 REVERT JUMPDEST PUSH2 0x86D PUSH2 0xCBD JUMP JUMPDEST PUSH1 0x0 PUSH1 0x4 SLOAD DUP3 GT ISZERO SWAP1 POP PUSH1 0x6 PUSH1 0x40 MLOAD DUP1 PUSH1 0x60 ADD PUSH1 0x40 MSTORE DUP1 CALLER PUSH20 0xFFFFFFFFFFFFFFFFFFFFFFFFFFFFFFFFFFFFFFFF AND DUP2 MSTORE PUSH1 0x20 ADD DUP5 DUP2 MSTORE PUSH1 0x20 ADD DUP4 ISZERO ISZERO DUP2 MSTORE POP SWAP1 DUP1 PUSH1 0x1 DUP2 SLOAD ADD DUP1 DUP3 SSTORE DUP1 SWAP2 POP POP PUSH1 0x1 SWAP1 SUB SWAP1 PUSH1 0x0 MSTORE PUSH1 0x20 PUSH1 0x0 KECCAK256 SWAP1 PUSH1 0x3 MUL ADD PUSH1 0x0 SWAP1 SWAP2 SWAP1 SWAP2 SWAP1 SWAP2 POP PUSH1 0x0 DUP3 ADD MLOAD DUP2 PUSH1 0x0 ADD PUSH1 0x0 PUSH2 0x100 EXP DUP2 SLOAD DUP2 PUSH20 0xFFFFFFFFFFFFFFFFFFFFFFFFFFFFFFFFFFFFFFFF MUL NOT AND SWAP1 DUP4 PUSH20 0xFFFFFFFFFFFFFFFFFFFFFFFFFFFFFFFFFFFFFFFF AND MUL OR SWAP1 SSTORE POP PUSH1 0x20 DUP3 ADD MLOAD DUP2 PUSH1 0x1 ADD SSTORE PUSH1 0x40 DUP3 ADD MLOAD DUP2 PUSH1 0x2 ADD PUSH1 0x0 PUSH2 0x100 EXP DUP2 SLOAD DUP2 PUSH1 0xFF MUL NOT AND SWAP1 DUP4 ISZERO ISZERO MUL OR SWAP1 SSTORE POP POP POP CALLER PUSH20 0xFFFFFFFFFFFFFFFFFFFFFFFFFFFFFFFFFFFFFFFF AND PUSH32 0xCE8F41A4BAC870C7FDC418D8673AECBAB6AA9657BB910452705F910C6C06B843 DUP4 DUP4 PUSH1 0x40 MLOAD PUSH2 0x990 SWAP3 SWAP2 SWAP1 PUSH2 0x1244 JUMP JUMPDEST PUSH1 0x40 MLOAD DUP1 SWAP2 SUB SWAP1 LOG2 DUP1 PUSH2 0x9DE JUMPI DUP2 PUSH1 0x4 SLOAD PUSH1 0x40 MLOAD PUSH32 0xB4ED2D2B00000000000000000000000000000000000000000000000000000000 DUP2 MSTORE PUSH1 0x4 ADD PUSH2 0x9D5 SWAP3 SWAP2 SWAP1 PUSH2 0x126D JUMP JUMPDEST PUSH1 0x40 MLOAD DUP1 SWAP2 SUB SWAP1 REVERT JUMPDEST PUSH1 0x2 PUSH1 0x0 SWAP1 SLOAD SWAP1 PUSH2 0x100 EXP SWAP1 DIV PUSH20 0xFFFFFFFFFFFFFFFFFFFFFFFFFFFFFFFFFFFFFFFF AND PUSH20 0xFFFFFFFFFFFFFFFFFFFFFFFFFFFFFFFFFFFFFFFF AND PUSH4 0xF3FEF3A3 CALLER DUP5 PUSH1 0x40 MLOAD DUP4 PUSH4 0xFFFFFFFF AND PUSH1 0xE0 SHL DUP2 MSTORE PUSH1 0x4 ADD PUSH2 0xA3B SWAP3 SWAP2 SWAP1 PUSH2 0x1157 JUMP JUMPDEST PUSH1 0x0 PUSH1 0x40 MLOAD DUP1 DUP4 SUB DUP2 PUSH1 0x0 DUP8 DUP1 EXTCODESIZE ISZERO DUP1 ISZERO PUSH2 0xA55 JUMPI PUSH1 0x0 DUP1 REVERT JUMPDEST POP GAS CALL ISZERO DUP1 ISZERO PUSH2 0xA69 JUMPI RETURNDATASIZE PUSH1 0x0 DUP1 RETURNDATACOPY RETURNDATASIZE PUSH1 0x0 REVERT JUMPDEST POP POP POP POP POP PUSH2 0xA76 PUSH2 0xD03 JUMP JUMPDEST POP JUMP JUMPDEST PUSH2 0xA81 PUSH2 0xB72 JUMP JUMPDEST PUSH1 0x0 PUSH20 0xFFFFFFFFFFFFFFFFFFFFFFFFFFFFFFFFFFFFFFFF AND DUP2 PUSH20 0xFFFFFFFFFFFFFFFFFFFFFFFFFFFFFFFFFFFFFFFF AND SUB PUSH2 0xAF3 JUMPI PUSH1 0x0 PUSH1 0x40 MLOAD PUSH32 0x1E4FBDF700000000000000000000000000000000000000000000000000000000 DUP2 MSTORE PUSH1 0x4 ADD PUSH2 0xAEA SWAP2 SWAP1 PUSH2 0xF3A JUMP JUMPDEST PUSH1 0x40 MLOAD DUP1 SWAP2 SUB SWAP1 REVERT JUMPDEST PUSH2 0xAFC DUP2 PUSH2 0xBF9 JUMP JUMPDEST POP JUMP JUMPDEST PUSH1 0x2 PUSH1 0x0 SWAP1 SLOAD SWAP1 PUSH2 0x100 EXP SWAP1 DIV PUSH20 0xFFFFFFFFFFFFFFFFFFFFFFFFFFFFFFFFFFFFFFFF AND DUP2 JUMP JUMPDEST PUSH2 0xB2D PUSH2 0xB72 JUMP JUMPDEST PUSH32 0x851290B73F28D38DB30AC929F2E6490B1E1CC009313CC865FF78938E54BAEDB2 PUSH1 0x4 SLOAD DUP3 PUSH1 0x40 MLOAD PUSH2 0xB60 SWAP3 SWAP2 SWAP1 PUSH2 0x126D JUMP JUMPDEST PUSH1 0x40 MLOAD DUP1 SWAP2 SUB SWAP1 LOG1 DUP1 PUSH1 0x4 DUP2 SWAP1 SSTORE POP POP JUMP JUMPDEST PUSH2 0xB7A PUSH2 0xD0C JUMP JUMPDEST PUSH20 0xFFFFFFFFFFFFFFFFFFFFFFFFFFFFFFFFFFFFFFFF AND PUSH2 0xB98 PUSH2 0x5FA JUMP JUMPDEST PUSH20 0xFFFFFFFFFFFFFFFFFFFFFFFFFFFFFFFFFFFFFFFF AND EQ PUSH2 0xBF7 JUMPI PUSH2 0xBBB PUSH2 0xD0C JUMP JUMPDEST PUSH1 0x40 MLOAD PUSH32 0x118CDAA700000000000000000000000000000000000000000000000000000000 DUP2 MSTORE PUSH1 0x4 ADD PUSH2 0xBEE SWAP2 SWAP1 PUSH2 0xF3A JUMP JUMPDEST PUSH1 0x40 MLOAD DUP1 SWAP2 SUB SWAP1 REVERT JUMPDEST JUMP JUMPDEST PUSH1 0x0 DUP1 PUSH1 0x0 SWAP1 SLOAD SWAP1 PUSH2 0x100 EXP SWAP1 DIV PUSH20 0xFFFFFFFFFFFFFFFFFFFFFFFFFFFFFFFFFFFFFFFF AND SWAP1 POP DUP2 PUSH1 0x0 DUP1 PUSH2 0x100 EXP DUP2 SLOAD DUP2 PUSH20 0xFFFFFFFFFFFFFFFFFFFFFFFFFFFFFFFFFFFFFFFF MUL NOT AND SWAP1 DUP4 PUSH20 0xFFFFFFFFFFFFFFFFFFFFFFFFFFFFFFFFFFFFFFFF AND MUL OR SWAP1 SSTORE POP DUP2 PUSH20 0xFFFFFFFFFFFFFFFFFFFFFFFFFFFFFFFFFFFFFFFF AND DUP2 PUSH20 0xFFFFFFFFFFFFFFFFFFFFFFFFFFFFFFFFFFFFFFFF AND PUSH32 0x8BE0079C531659141344CD1FD0A4F28419497F9722A3DAAFE3B4186F6B6457E0 PUSH1 0x40 MLOAD PUSH1 0x40 MLOAD DUP1 SWAP2 SUB SWAP1 LOG3 POP POP JUMP JUMPDEST PUSH1 0x2 PUSH1 0x1 SLOAD SUB PUSH2 0xCF9 JUMPI PUSH1 0x40 MLOAD PUSH32 0x3EE5AEB500000000000000000000000000000000000000000000000000000000 DUP2 MSTORE PUSH1 0x4 ADD PUSH1 0x40 MLOAD DUP1 SWAP2 SUB SWAP1 REVERT JUMPDEST PUSH1 0x2 PUSH1 0x1 DUP2 SWAP1 SSTORE POP JUMP JUMPDEST PUSH1 0x1 DUP1 DUP2 SWAP1 SSTORE POP JUMP JUMPDEST PUSH1 0x0 CALLER SWAP1 POP SWAP1 JUMP JUMPDEST PUSH1 0x0 DUP1 REVERT JUMPDEST PUSH1 0x0 PUSH20 0xFFFFFFFFFFFFFFFFFFFFFFFFFFFFFFFFFFFFFFFF DUP3 AND SWAP1 POP SWAP2 SWAP1 POP JUMP JUMPDEST PUSH1 0x0 PUSH2 0xD44 DUP3 PUSH2 0xD19 JUMP JUMPDEST SWAP1 POP SWAP2 SWAP1 POP JUMP JUMPDEST PUSH2 0xD54 DUP2 PUSH2 0xD39 JUMP JUMPDEST DUP2 EQ PUSH2 0xD5F JUMPI PUSH1 0x0 DUP1 REVERT JUMPDEST POP JUMP JUMPDEST PUSH1 0x0 DUP2 CALLDATALOAD SWAP1 POP PUSH2 0xD71 DUP2 PUSH2 0xD4B JUMP JUMPDEST SWAP3 SWAP2 POP POP JUMP JUMPDEST PUSH1 0x0 DUP2 SWAP1 POP SWAP2 SWAP1 POP JUMP JUMPDEST PUSH2 0xD8A DUP2 PUSH2 0xD77 JUMP JUMPDEST DUP2 EQ PUSH2 0xD95 JUMPI PUSH1 0x0 DUP1 REVERT JUMPDEST POP JUMP JUMPDEST PUSH1 0x0 DUP2 CALLDATALOAD SWAP1 POP PUSH2 0xDA7 DUP2 PUSH2 0xD81 JUMP JUMPDEST SWAP3 SWAP2 POP POP JUMP JUMPDEST PUSH1 0x0 DUP1 PUSH1 0x40 DUP4 DUP6 SUB SLT ISZERO PUSH2 0xDC4 JUMPI PUSH2 0xDC3 PUSH2 0xD14 JUMP JUMPDEST JUMPDEST PUSH1 0x0 PUSH2 0xDD2 DUP6 DUP3 DUP7 ADD PUSH2 0xD62 JUMP JUMPDEST SWAP3 POP POP PUSH1 0x20 PUSH2 0xDE3 DUP6 DUP3 DUP7 ADD PUSH2 0xD98 JUMP JUMPDEST SWAP2 POP POP SWAP3 POP SWAP3 SWAP1 POP JUMP JUMPDEST PUSH1 0x0 DUP2 ISZERO ISZERO SWAP1 POP SWAP2 SWAP1 POP JUMP JUMPDEST PUSH2 0xE02 DUP2 PUSH2 0xDED JUMP JUMPDEST DUP3 MSTORE POP POP JUMP JUMPDEST PUSH1 0x0 PUSH1 0x20 DUP3 ADD SWAP1 POP PUSH2 0xE1D PUSH1 0x0 DUP4 ADD DUP5 PUSH2 0xDF9 JUMP JUMPDEST SWAP3 SWAP2 POP POP JUMP JUMPDEST PUSH1 0x0 PUSH1 0x20 DUP3 DUP5 SUB SLT ISZERO PUSH2 0xE39 JUMPI PUSH2 0xE38 PUSH2 0xD14 JUMP JUMPDEST JUMPDEST PUSH1 0x0 PUSH2 0xE47 DUP5 DUP3 DUP6 ADD PUSH2 0xD98 JUMP JUMPDEST SWAP2 POP POP SWAP3 SWAP2 POP POP JUMP JUMPDEST PUSH2 0xE59 DUP2 PUSH2 0xD39 JUMP JUMPDEST DUP3 MSTORE POP POP JUMP JUMPDEST PUSH2 0xE68 DUP2 PUSH2 0xD77 JUMP JUMPDEST DUP3 MSTORE POP POP JUMP JUMPDEST PUSH1 0x0 PUSH1 0x60 DUP3 ADD SWAP1 POP PUSH2 0xE83 PUSH1 0x0 DUP4 ADD DUP7 PUSH2 0xE50 JUMP JUMPDEST PUSH2 0xE90 PUSH1 0x20 DUP4 ADD DUP6 PUSH2 0xE5F JUMP JUMPDEST PUSH2 0xE9D PUSH1 0x40 DUP4 ADD DUP5 PUSH2 0xDF9 JUMP JUMPDEST SWAP5 SWAP4 POP POP POP POP JUMP JUMPDEST PUSH1 0x0 PUSH1 0x20 DUP3 ADD SWAP1 POP PUSH2 0xEBA PUSH1 0x0 DUP4 ADD DUP5 PUSH2 0xE5F JUMP JUMPDEST SWAP3 SWAP2 POP POP JUMP JUMPDEST PUSH1 0x0 DUP2 SWAP1 POP SWAP2 SWAP1 POP JUMP JUMPDEST PUSH1 0x0 PUSH2 0xEE5 PUSH2 0xEE0 PUSH2 0xEDB DUP5 PUSH2 0xD19 JUMP JUMPDEST PUSH2 0xEC0 JUMP JUMPDEST PUSH2 0xD19 JUMP JUMPDEST SWAP1 POP SWAP2 SWAP1 POP JUMP JUMPDEST PUSH1 0x0 PUSH2 0xEF7 DUP3 PUSH2 0xECA JUMP JUMPDEST SWAP1 POP SWAP2 SWAP1 POP JUMP JUMPDEST PUSH1 0x0 PUSH2 0xF09 DUP3 PUSH2 0xEEC JUMP JUMPDEST SWAP1 POP SWAP2 SWAP1 POP JUMP JUMPDEST PUSH2 0xF19 DUP2 PUSH2 0xEFE JUMP JUMPDEST DUP3 MSTORE POP POP JUMP JUMPDEST PUSH1 0x0 PUSH1 0x20 DUP3 ADD SWAP1 POP PUSH2 0xF34 PUSH1 0x0 DUP4 ADD DUP5 PUSH2 0xF10 JUMP JUMPDEST SWAP3 SWAP2 POP POP JUMP JUMPDEST PUSH1 0x0 PUSH1 0x20 DUP3 ADD SWAP1 POP PUSH2 0xF4F PUSH1 0x0 DUP4 ADD DUP5 PUSH2 0xE50 JUMP JUMPDEST SWAP3 SWAP2 POP POP JUMP JUMPDEST PUSH2 0xF5E DUP2 PUSH2 0xDED JUMP JUMPDEST DUP2 EQ PUSH2 0xF69 JUMPI PUSH1 0x0 DUP1 REVERT JUMPDEST POP JUMP JUMPDEST PUSH1 0x0 DUP2 CALLDATALOAD SWAP1 POP PUSH2 0xF7B DUP2 PUSH2 0xF55 JUMP JUMPDEST SWAP3 SWAP2 POP POP JUMP JUMPDEST PUSH1 0x0 PUSH1 0x20 DUP3 DUP5 SUB SLT ISZERO PUSH2 0xF97 JUMPI PUSH2 0xF96 PUSH2 0xD14 JUMP JUMPDEST JUMPDEST PUSH1 0x0 PUSH2 0xFA5 DUP5 DUP3 DUP6 ADD PUSH2 0xF6C JUMP JUMPDEST SWAP2 POP POP SWAP3 SWAP2 POP POP JUMP JUMPDEST PUSH1 0x0 DUP2 MLOAD SWAP1 POP SWAP2 SWAP1 POP JUMP JUMPDEST PUSH1 0x0 DUP3 DUP3 MSTORE PUSH1 0x20 DUP3 ADD SWAP1 POP SWAP3 SWAP2 POP POP JUMP JUMPDEST PUSH1 0x0 DUP2 SWAP1 POP PUSH1 0x20 DUP3 ADD SWAP1 POP SWAP2 SWAP1 POP JUMP JUMPDEST PUSH2 0xFE3 DUP2 PUSH2 0xD39 JUMP JUMPDEST DUP3 MSTORE POP POP JUMP JUMPDEST PUSH2 0xFF2 DUP2 PUSH2 0xD77 JUMP JUMPDEST DUP3 MSTORE POP POP JUMP JUMPDEST PUSH2 0x1001 DUP2 PUSH2 0xDED JUMP JUMPDEST DUP3 MSTORE POP POP JUMP JUMPDEST PUSH1 0x60 DUP3 ADD PUSH1 0x0 DUP3 ADD MLOAD PUSH2 0x101D PUSH1 0x0 DUP6 ADD DUP3 PUSH2 0xFDA JUMP JUMPDEST POP PUSH1 0x20 DUP3 ADD MLOAD PUSH2 0x1030 PUSH1 0x20 DUP6 ADD DUP3 PUSH2 0xFE9 JUMP JUMPDEST POP PUSH1 0x40 DUP3 ADD MLOAD PUSH2 0x1043 PUSH1 0x40 DUP6 ADD DUP3 PUSH2 0xFF8 JUMP JUMPDEST POP POP POP POP JUMP JUMPDEST PUSH1 0x0 PUSH2 0x1055 DUP4 DUP4 PUSH2 0x1007 JUMP JUMPDEST PUSH1 0x60 DUP4 ADD SWAP1 POP SWAP3 SWAP2 POP POP JUMP JUMPDEST PUSH1 0x0 PUSH1 0x20 DUP3 ADD SWAP1 POP SWAP2 SWAP1 POP JUMP JUMPDEST PUSH1 0x0 PUSH2 0x1079 DUP3 PUSH2 0xFAE JUMP JUMPDEST PUSH2 0x1083 DUP2 DUP6 PUSH2 0xFB9 JUMP JUMPDEST SWAP4 POP PUSH2 0x108E DUP4 PUSH2 0xFCA JUMP JUMPDEST DUP1 PUSH1 0x0 JUMPDEST DUP4 DUP2 LT ISZERO PUSH2 0x10BF JUMPI DUP2 MLOAD PUSH2 0x10A6 DUP9 DUP3 PUSH2 0x1049 JUMP JUMPDEST SWAP8 POP PUSH2 0x10B1 DUP4 PUSH2 0x1061 JUMP JUMPDEST SWAP3 POP POP PUSH1 0x1 DUP2 ADD SWAP1 POP PUSH2 0x1092 JUMP JUMPDEST POP DUP6 SWAP4 POP POP POP POP SWAP3 SWAP2 POP POP JUMP JUMPDEST PUSH1 0x0 PUSH1 0x20 DUP3 ADD SWAP1 POP DUP2 DUP2 SUB PUSH1 0x0 DUP4 ADD MSTORE PUSH2 0x10E6 DUP2 DUP5 PUSH2 0x106E JUMP JUMPDEST SWAP1 POP SWAP3 SWAP2 POP POP JUMP JUMPDEST PUSH1 0x0 PUSH1 0x20 DUP3 DUP5 SUB SLT ISZERO PUSH2 0x1104 JUMPI PUSH2 0x1103 PUSH2 0xD14 JUMP JUMPDEST JUMPDEST PUSH1 0x0 PUSH2 0x1112 DUP5 DUP3 DUP6 ADD PUSH2 0xD62 JUMP JUMPDEST SWAP2 POP POP SWAP3 SWAP2 POP POP JUMP JUMPDEST PUSH1 0x0 PUSH2 0x1126 DUP3 PUSH2 0xEEC JUMP JUMPDEST SWAP1 POP SWAP2 SWAP1 POP JUMP JUMPDEST PUSH2 0x1136 DUP2 PUSH2 0x111B JUMP JUMPDEST DUP3 MSTORE POP POP JUMP JUMPDEST PUSH1 0x0 PUSH1 0x20 DUP3 ADD SWAP1 POP PUSH2 0x1151 PUSH1 0x0 DUP4 ADD DUP5 PUSH2 0x112D JUMP JUMPDEST SWAP3 SWAP2 POP POP JUMP JUMPDEST PUSH1 0x0 PUSH1 0x40 DUP3 ADD SWAP1 POP PUSH2 0x116C PUSH1 0x0 DUP4 ADD DUP6 PUSH2 0xE50 JUMP JUMPDEST PUSH2 0x1179 PUSH1 0x20 DUP4 ADD DUP5 PUSH2 0xE5F JUMP JUMPDEST SWAP4 SWAP3 POP POP POP JUMP JUMPDEST PUSH1 0x0 DUP2 MLOAD SWAP1 POP PUSH2 0x118F DUP2 PUSH2 0xD81 JUMP JUMPDEST SWAP3 SWAP2 POP POP JUMP JUMPDEST PUSH1 0x0 DUP1 PUSH1 0x0 PUSH1 0x60 DUP5 DUP7 SUB SLT ISZERO PUSH2 0x11AE JUMPI PUSH2 0x11AD PUSH2 0xD14 JUMP JUMPDEST JUMPDEST PUSH1 0x0 PUSH2 0x11BC DUP7 DUP3 DUP8 ADD PUSH2 0x1180 JUMP JUMPDEST SWAP4 POP POP PUSH1 0x20 PUSH2 0x11CD DUP7 DUP3 DUP8 ADD PUSH2 0x1180 JUMP JUMPDEST SWAP3 POP POP PUSH1 0x40 PUSH2 0x11DE DUP7 DUP3 DUP8 ADD PUSH2 0x1180 JUMP JUMPDEST SWAP2 POP POP SWAP3 POP SWAP3 POP SWAP3 JUMP JUMPDEST PUSH32 0x4E487B7100000000000000000000000000000000000000000000000000000000 PUSH1 0x0 MSTORE PUSH1 0x32 PUSH1 0x4 MSTORE PUSH1 0x24 PUSH1 0x0 REVERT JUMPDEST PUSH1 0x0 PUSH1 0x20 DUP3 DUP5 SUB SLT ISZERO PUSH2 0x122D JUMPI PUSH2 0x122C PUSH2 0xD14 JUMP JUMPDEST JUMPDEST PUSH1 0x0 PUSH2 0x123B DUP5 DUP3 DUP6 ADD PUSH2 0x1180 JUMP JUMPDEST SWAP2 POP POP SWAP3 SWAP2 POP POP JUMP JUMPDEST PUSH1 0x0 PUSH1 0x40 DUP3 ADD SWAP1 POP PUSH2 0x1259 PUSH1 0x0 DUP4 ADD DUP6 PUSH2 0xE5F JUMP JUMPDEST PUSH2 0x1266 PUSH1 0x20 DUP4 ADD DUP5 PUSH2 0xDF9 JUMP JUMPDEST SWAP4 SWAP3 POP POP POP JUMP JUMPDEST PUSH1 0x0 PUSH1 0x40 DUP3 ADD SWAP1 POP PUSH2 0x1282 PUSH1 0x0 DUP4 ADD DUP6 PUSH2 0xE5F JUMP JUMPDEST PUSH2 0x128F PUSH1 0x20 DUP4 ADD DUP5 PUSH2 0xE5F JUMP JUMPDEST SWAP4 SWAP3 POP POP POP JUMP INVALID LOG2 PUSH5 0x6970667358 0x22 SLT KECCAK256 0x27 CALLDATASIZE TIMESTAMP DUP7 LT 0xF9 EQ 0xBF 0xD4 0xDD 0xAC 0xD8 0xD0 STATICCALL 0xBD MLOAD PUSH22 0xAF1E409472D1A71402212C7A23611364736F6C634300 ADDMOD SHR STOP CALLER "},"methodIdentifiers":{"getOracleLastUpdate()":"91c26ef1","getWithdrawalAttempt(uint256)":"78db2eeb","getWithdrawalAttempts()":"a5d5339e","getWithdrawalAttemptsCount()":"7d0ef17c","guardedWithdraw(uint256)":"c719460d","isThreatDetected()":"6161e0ce","oracle()":"7dc0d1d0","owner()":"8da5cb5b","pauseVault(bool)":"96036798","paused()":"5c975abb","renounceOwnership()":"715018a6","setWithdrawThreshold(uint256)":"feefd7dd","transferOwnership(address)":"f2fde38b","unpause()":"3f4ba83a","vault()":"fbfa77cf","withdrawFromVault(address,uint256)":"21116f4e","withdrawThreshold()":"760ee4c6","withdrawalAttempts(uint256)":"5e17a1c1"}}}}}