{
  "_format": "hh-sol-artifact-1",
  "contractName": "Guard",
  "sourceName": "contracts/Guard.sol",
  "abi": [
    {
      "inputs": [
        {
          "internalType": "address",
          "name": "_vault",
          "type": "address"
        },
        {
          "internalType": "uint256",
          "name": "_withdrawThreshold",
          "type": "uint256"
        },
        {
          "internalType": "address",
          "name": "_oracle",
          "type": "address"
        }
      ],
      "stateMutability": "nonpayable",
      "type": "constructor"
    },
    {
      "inputs": [
        {
          "internalType": "uint256",
          "name": "requested",
          "type": "uint256"
        },
        {
          "internalType": "uint256",
          "name": "max",
          "type": "uint256"
        }
      ],
      "name": "ExceedsThreshold",
      "type": "error"
    },
    {
      "inputs": [
        {
          "internalType": "address",
          "name": "owner",
          "type": "address"
        }
      ],
      "name": "OwnableInvalidOwner",
      "type": "error"
    },
    {
      "inputs": [
        {
          "internalType": "address",
          "name": "account",
          "type": "address"
        }
      ],
      "name": "OwnableUnauthorizedAccount",
      "type": "error"
    },
    {
      "inputs": [],
      "name": "PausedError",
      "type": "error"
    },
    {
      "inputs": [],
      "name": "ReentrancyGuardReentrantCall",
      "type": "error"
    },
    {
      "anonymous": false,
      "inputs": [
        {
          "indexed": true,
          "internalType": "address",
          "name": "previousOwner",
          "type": "address"
        },
        {
          "indexed": true,
          "internalType": "address",
          "name": "newOwner",
          "type": "address"
        }
      ],
      "name": "OwnershipTransferred",
      "type": "event"
    },
    {
      "anonymous": false,
      "inputs": [],
      "name": "Paused",
      "type": "event"
    },
    {
      "anonymous": false,
      "inputs": [],
      "name": "Unpaused",
      "type": "event"
    },
    {
      "anonymous": false,
      "inputs": [
        {
          "indexed": false,
          "internalType": "uint256",
          "name": "oldThreshold",
          "type": "uint256"
        },
        {
          "indexed": false,
          "internalType": "uint256",
          "name": "newThreshold",
          "type": "uint256"
        }
      ],
      "name": "WithdrawThresholdUpdated",
      "type": "event"
    },
    {
      "anonymous": false,
      "inputs": [
        {
          "indexed": true,
          "internalType": "address",
          "name": "user",
          "type": "address"
        },
        {
          "indexed": false,
          "internalType": "uint256",
          "name": "amount",
          "type": "uint256"
        },
        {
          "indexed": false,
          "internalType": "bool",
          "name": "allowed",
          "type": "bool"
        }
      ],
      "name": "WithdrawalAttempt",
      "type": "event"
    },
    {
      "inputs": [],
      "name": "getOracleLastUpdate",
      "outputs": [
        {
          "internalType": "uint256",
          "name": "",
          "type": "uint256"
        }
      ],
      "stateMutability": "view",
      "type": "function"
    },
    {
      "inputs": [
        {
          "internalType": "uint256",
          "name": "index",
          "type": "uint256"
        }
      ],
      "name": "getWithdrawalAttempt",
      "outputs": [
        {
          "internalType": "address",
          "name": "user",
          "type": "address"
        },
        {
          "internalType": "uint256",
          "name": "amount",
          "type": "uint256"
        },
        {
          "internalType": "bool",
          "name": "allowed",
          "type": "bool"
        }
      ],
      "stateMutability": "view",
      "type": "function"
    },
    {
      "inputs": [],
      "name": "getWithdrawalAttempts",
      "outputs": [
        {
          "components": [
            {
              "internalType": "address",
              "name": "user",
              "type": "address"
            },
            {
              "internalType": "uint256",
              "name": "amount",
              "type": "uint256"
            },
            {
              "internalType": "bool",
              "name": "allowed",
              "type": "bool"
            }
          ],
          "internalType": "struct Guard.WithdrawalAttemptData[]",
          "name": "",
          "type": "tuple[]"
        }
      ],
      "stateMutability": "view",
      "type": "function"
    },
    {
      "inputs": [],
      "name": "getWithdrawalAttemptsCount",
      "outputs": [
        {
          "internalType": "uint256",
          "name": "",
          "type": "uint256"
        }
      ],
      "stateMutability": "view",
      "type": "function"
    },
    {
      "inputs": [
        {
          "internalType": "uint256",
          "name": "amount",
          "type": "uint256"
        }
      ],
      "name": "guardedWithdraw",
      "outputs": [],
      "stateMutability": "nonpayable",
      "type": "function"
    },
    {
      "inputs": [],
      "name": "isThreatDetected",
      "outputs": [
        {
          "internalType": "bool",
          "name": "",
          "type": "bool"
        }
      ],
      "stateMutability": "view",
      "type": "function"
    },
    {
      "inputs": [],
      "name": "oracle",
      "outputs": [
        {
          "internalType": "contract IOracle",
          "name": "",
          "type": "address"
        }
      ],
      "stateMutability": "view",
      "type": "function"
    },
    {
      "inputs": [],
      "name": "owner",
      "outputs": [
        {
          "internalType": "address",
          "name": "",
          "type": "address"
        }
      ],
      "stateMutability": "view",
      "type": "function"
    },
    {
      "inputs": [
        {
          "internalType": "bool",
          "name": "pause",
          "type": "bool"
        }
      ],
      "name": "pauseVault",
      "outputs": [],
      "stateMutability": "nonpayable",
      "type": "function"
    },
    {
      "inputs": [],
      "name": "paused",
      "outputs": [
        {
          "internalType": "bool",
          "name": "",
          "type": "bool"
        }
      ],
      "stateMutability": "view",
      "type": "function"
    },
    {
      "inputs": [],
      "name": "renounceOwnership",
      "outputs": [],
      "stateMutability": "nonpayable",
      "type": "function"
    },
    {
      "inputs": [
        {
          "internalType": "uint256",
          "name": "_withdrawThreshold",
          "type": "uint256"
        }
      ],
      "name": "setWithdrawThreshold",
      "outputs": [],
      "stateMutability": "nonpayable",
      "type": "function"
    },
    {
      "inputs": [
        {
          "internalType": "address",
          "name": "newOwner",
          "type": "address"
        }
      ],
      "name": "transferOwnership",
      "outputs": [],
      "stateMutability": "nonpayable",
      "type": "function"
    },
    {
      "inputs": [],
      "name": "unpause",
      "outputs": [],
      "stateMutability": "nonpayable",
      "type": "function"
    },
    {
      "inputs": [],
      "name": "vault",
      "outputs": [
        {
          "internalType": "contract IVault",
          "name": "",
          "type": "address"
        }
      ],
      "stateMutability": "view",
      "type": "function"
    },
    {
      "inputs": [
        {
          "internalType": "address",
          "name": "user",
          "type": "address"
        },
        {
          "internalType": "uint256",
          "name": "amount",
          "type": "uint256"
        }
      ],
      "name": "withdrawFromVault",
      "outputs": [],
      "stateMutability": "nonpayable",
      "type": "function"
    },
    {
      "inputs": [],
      "name": "withdrawThreshold",
      "outputs": [
        {
          "internalType": "uint256",
          "name": "",
          "type": "uint256"
        }
      ],
      "stateMutability": "view",
      "type": "function"
    },
    {
      "inputs": [
        {
          "internalType": "uint256",
          "name": "",
          "type": "uint256"
        }
      ],
      "name": "withdrawalAttempts",
      "outputs": [
        {
          "internalType": "address",
          "name": "user",
          "type": "address"
        },
        {
          "internalType": "uint256",
          "name": "amount",
          "type": "uint256"
        },
        {
          "internalType": "bool",
          "name": "allowed",
          "type": "bool"
        }
      ],
      "stateMutability": "view",
      "type": "function"
    }
  ],
  "bytecode": "0x608060405234801561001057600080fd5b506040516117e43803806117e4833981810160405281019061003291906103a3565b33600073ffffffffffffffffffffffffffffffffffffffff168173ffffffffffffffffffffffffffffffffffffffff16036100a55760006040517f1e4fbdf700000000000000000000000000000000000000000000000000000000815260040161009c9190610405565b60405180910390fd5b6100b48161024660201b60201c565b5060018081905550600073ffffffffffffffffffffffffffffffffffffffff168373ffffffffffffffffffffffffffffffffffffffff160361012b576040517f08c379a00000000000000000000000000000000000000000000000000000000081526004016101229061047d565b60405180910390fd5b600073ffffffffffffffffffffffffffffffffffffffff168173ffffffffffffffffffffffffffffffffffffffff160361019a576040517f08c379a0000000000000000000000000000000000000000000000000000000008152600401610191906104e9565b60405180910390fd5b82600260006101000a81548173ffffffffffffffffffffffffffffffffffffffff021916908373ffffffffffffffffffffffffffffffffffffffff1602179055508160048190555080600360006101000a81548173ffffffffffffffffffffffffffffffffffffffff021916908373ffffffffffffffffffffffffffffffffffffffff1602179055506000600560006101000a81548160ff021916908315150217905550505050610509565b60008060009054906101000a900473ffffffffffffffffffffffffffffffffffffffff169050816000806101000a81548173ffffffffffffffffffffffffffffffffffffffff021916908373ffffffffffffffffffffffffffffffffffffffff1602179055508173ffffffffffffffffffffffffffffffffffffffff168173ffffffffffffffffffffffffffffffffffffffff167f8be0079c531659141344cd1fd0a4f28419497f9722a3daafe3b4186f6b6457e060405160405180910390a35050565b600080fd5b600073ffffffffffffffffffffffffffffffffffffffff82169050919050565b600061033a8261030f565b9050919050565b61034a8161032f565b811461035557600080fd5b50565b60008151905061036781610341565b92915050565b6000819050919050565b6103808161036d565b811461038b57600080fd5b50565b60008151905061039d81610377565b92915050565b6000806000606084860312156103bc576103bb61030a565b5b60006103ca86828701610358565b93505060206103db8682870161038e565b92505060406103ec86828701610358565b9150509250925092565b6103ff8161032f565b82525050565b600060208201905061041a60008301846103f6565b92915050565b600082825260208201905092915050565b7f47756172643a207a65726f207661756c74206164647265737300000000000000600082015250565b6000610467601983610420565b915061047282610431565b602082019050919050565b600060208201905081810360008301526104968161045a565b9050919050565b7f47756172643a207a65726f206f7261636c652061646472657373000000000000600082015250565b60006104d3601a83610420565b91506104de8261049d565b602082019050919050565b60006020820190508181036000830152610502816104c6565b9050919050565b6112cc806105186000396000f3fe608060405234801561001057600080fd5b50600436106101165760003560e01c80637dc0d1d0116100a2578063a5d5339e11610071578063a5d5339e1461029d578063c719460d146102bb578063f2fde38b146102d7578063fbfa77cf146102f3578063feefd7dd1461031157610116565b80637dc0d1d0146102275780638da5cb5b1461024557806391c26ef114610263578063960367981461028157610116565b80636161e0ce116100e95780636161e0ce14610191578063715018a6146101af578063760ee4c6146101b957806378db2eeb146101d75780637d0ef17c1461020957610116565b806321116f4e1461011b5780633f4ba83a146101375780635c975abb146101415780635e17a1c11461015f575b600080fd5b61013560048036038101906101309190610dad565b61032d565b005b61013f6103c8565b005b610149610419565b6040516101569190610e08565b60405180910390f35b61017960048036038101906101749190610e23565b610430565b60405161018893929190610e6e565b60405180910390f35b610199610497565b6040516101a69190610e08565b60405180910390f35b6101b7610539565b005b6101c161054d565b6040516101ce9190610ea5565b60405180910390f35b6101f160048036038101906101ec9190610e23565b610553565b60405161020093929190610e6e565b60405180910390f35b6102116105c7565b60405161021e9190610ea5565b60405180910390f35b61022f6105d4565b60405161023c9190610f1f565b60405180910390f35b61024d6105fa565b60405161025a9190610f3a565b60405180910390f35b61026b610623565b6040516102789190610ea5565b60405180910390f35b61029b60048036038101906102969190610f81565b6106bb565b005b6102a5610744565b6040516102b291906110cc565b60405180910390f35b6102d560048036038101906102d09190610e23565b61081e565b005b6102f160048036038101906102ec91906110ee565b610a79565b005b6102fb610aff565b604051610308919061113c565b60405180910390f35b61032b60048036038101906103269190610e23565b610b25565b005b610335610b72565b600260009054906101000a900473ffffffffffffffffffffffffffffffffffffffff1673ffffffffffffffffffffffffffffffffffffffff1663f3fef3a383836040518363ffffffff1660e01b8152600401610392929190611157565b600060405180830381600087803b1580156103ac57600080fd5b505af11580156103c0573d6000803e3d6000fd5b505050505050565b6103d0610b72565b6000600560006101000a81548160ff0219169083151502179055507fa45f47fdea8a1efdd9029a5691c7f759c32b7c698632b563573e155625d1693360405160405180910390a1565b6000600560009054906101000a900460ff16905090565b6006818154811061044057600080fd5b90600052602060002090600302016000915090508060000160009054906101000a900473ffffffffffffffffffffffffffffffffffffffff16908060010154908060020160009054906101000a900460ff16905083565b600080600360009054906101000a900473ffffffffffffffffffffffffffffffffffffffff1673ffffffffffffffffffffffffffffffffffffffff16636481c5e66040518163ffffffff1660e01b8152600401606060405180830381865afa158015610507573d6000803e3d6000fd5b505050506040513d601f19601f8201168201806040525081019061052b9190611195565b925050506002811191505090565b610541610b72565b61054b6000610bf9565b565b60045481565b6000806000806006858154811061056d5761056c6111e8565b5b906000526020600020906003020190508060000160009054906101000a900473ffffffffffffffffffffffffffffffffffffffff1681600101548260020160009054906101000a900460ff16935093509350509193909250565b6000600680549050905090565b600360009054906101000a900473ffffffffffffffffffffffffffffffffffffffff1681565b60008060009054906101000a900473ffffffffffffffffffffffffffffffffffffffff16905090565b6000600360009054906101000a900473ffffffffffffffffffffffffffffffffffffffff1673ffffffffffffffffffffffffffffffffffffffff16634c89867f6040518163ffffffff1660e01b8152600401602060405180830381865afa158015610692573d6000803e3d6000fd5b505050506040513d601f19601f820116820180604052508101906106b69190611217565b905090565b6106c3610b72565b80600560006101000a81548160ff0219169083151502179055508015610714577f9e87fac88ff661f02d44f95383c817fece4bce600a3dab7a54406878b965e75260405160405180910390a1610741565b7fa45f47fdea8a1efdd9029a5691c7f759c32b7c698632b563573e155625d1693360405160405180910390a15b50565b60606006805480602002602001604051908101604052809291908181526020016000905b8282101561081557838290600052602060002090600302016040518060600160405290816000820160009054906101000a900473ffffffffffffffffffffffffffffffffffffffff1673ffffffffffffffffffffffffffffffffffffffff1673ffffffffffffffffffffffffffffffffffffffff168152602001600182015481526020016002820160009054906101000a900460ff16151515158152505081526020019060010190610768565b50505050905090565b600560009054906101000a900460ff1615610865576040517feced32bc00000000000000000000000000000000000000000000000000000000815260040160405180910390fd5b61086d610cbd565b60006004548211159050600660405180606001604052803373ffffffffffffffffffffffffffffffffffffffff168152602001848152602001831515815250908060018154018082558091505060019003906000526020600020906003020160009091909190915060008201518160000160006101000a81548173ffffffffffffffffffffffffffffffffffffffff021916908373ffffffffffffffffffffffffffffffffffffffff1602179055506020820151816001015560408201518160020160006101000a81548160ff02191690831515021790555050503373ffffffffffffffffffffffffffffffffffffffff167fce8f41a4bac870c7fdc418d8673aecbab6aa9657bb910452705f910c6c06b8438383604051610990929190611244565b60405180910390a2806109de57816004546040517fb4ed2d2b0000000000000000000000000000000000000000000000000000000081526004016109d592919061126d565b60405180910390fd5b600260009054906101000a900473ffffffffffffffffffffffffffffffffffffffff1673ffffffffffffffffffffffffffffffffffffffff1663f3fef3a333846040518363ffffffff1660e01b8152600401610a3b929190611157565b600060405180830381600087803b158015610a5557600080fd5b505af1158015610a69573d6000803e3d6000fd5b5050505050610a76610d03565b50565b610a81610b72565b600073ffffffffffffffffffffffffffffffffffffffff168173ffffffffffffffffffffffffffffffffffffffff1603610af35760006040517f1e4fbdf7000000000000000000000000000000000000000000000000000000008152600401610aea9190610f3a565b60405180910390fd5b610afc81610bf9565b50565b600260009054906101000a900473ffffffffffffffffffffffffffffffffffffffff1681565b610b2d610b72565b7f851290b73f28d38db30ac929f2e6490b1e1cc009313cc865ff78938e54baedb260045482604051610b6092919061126d565b60405180910390a18060048190555050565b610b7a610d0c565b73ffffffffffffffffffffffffffffffffffffffff16610b986105fa565b73ffffffffffffffffffffffffffffffffffffffff1614610bf757610bbb610d0c565b6040517f118cdaa7000000000000000000000000000000000000000000000000000000008152600401610bee9190610f3a565b60405180910390fd5b565b60008060009054906101000a900473ffffffffffffffffffffffffffffffffffffffff169050816000806101000a81548173ffffffffffffffffffffffffffffffffffffffff021916908373ffffffffffffffffffffffffffffffffffffffff1602179055508173ffffffffffffffffffffffffffffffffffffffff168173ffffffffffffffffffffffffffffffffffffffff167f8be0079c531659141344cd1fd0a4f28419497f9722a3daafe3b4186f6b6457e060405160405180910390a35050565b600260015403610cf9576040517f3ee5aeb500000000000000000000000000000000000000000000000000000000815260040160405180910390fd5b6002600181905550565b60018081905550565b600033905090565b600080fd5b600073ffffffffffffffffffffffffffffffffffffffff82169050919050565b6000610d4482610d19565b9050919050565b610d5481610d39565b8114610d5f57600080fd5b50565b600081359050610d7181610d4b565b92915050565b6000819050919050565b610d8a81610d77565b8114610d9557600080fd5b50565b600081359050610da781610d81565b92915050565b60008060408385031215610dc457610dc3610d14565b5b6000610dd285828601610d62565b9250506020610de385828601610d98565b9150509250929050565b60008115159050919050565b610e0281610ded565b82525050565b6000602082019050610e1d6000830184610df9565b92915050565b600060208284031215610e3957610e38610d14565b5b6000610e4784828501610d98565b91505092915050565b610e5981610d39565b82525050565b610e6881610d77565b82525050565b6000606082019050610e836000830186610e50565b610e906020830185610e5f565b610e9d6040830184610df9565b949350505050565b6000602082019050610eba6000830184610e5f565b92915050565b6000819050919050565b6000610ee5610ee0610edb84610d19565b610ec0565b610d19565b9050919050565b6000610ef782610eca565b9050919050565b6000610f0982610eec565b9050919050565b610f1981610efe565b82525050565b6000602082019050610f346000830184610f10565b92915050565b6000602082019050610f4f6000830184610e50565b92915050565b610f5e81610ded565b8114610f6957600080fd5b50565b600081359050610f7b81610f55565b92915050565b600060208284031215610f9757610f96610d14565b5b6000610fa584828501610f6c565b91505092915050565b600081519050919050565b600082825260208201905092915050565b6000819050602082019050919050565b610fe381610d39565b82525050565b610ff281610d77565b82525050565b61100181610ded565b82525050565b60608201600082015161101d6000850182610fda565b5060208201516110306020850182610fe9565b5060408201516110436040850182610ff8565b50505050565b60006110558383611007565b60608301905092915050565b6000602082019050919050565b600061107982610fae565b6110838185610fb9565b935061108e83610fca565b8060005b838110156110bf5781516110a68882611049565b97506110b183611061565b925050600181019050611092565b5085935050505092915050565b600060208201905081810360008301526110e6818461106e565b905092915050565b60006020828403121561110457611103610d14565b5b600061111284828501610d62565b91505092915050565b600061112682610eec565b9050919050565b6111368161111b565b82525050565b6000602082019050611151600083018461112d565b92915050565b600060408201905061116c6000830185610e50565b6111796020830184610e5f565b9392505050565b60008151905061118f81610d81565b92915050565b6000806000606084860312156111ae576111ad610d14565b5b60006111bc86828701611180565b93505060206111cd86828701611180565b92505060406111de86828701611180565b9150509250925092565b7f4e487b7100000000000000000000000000000000000000000000000000000000600052603260045260246000fd5b60006020828403121561122d5761122c610d14565b5b600061123b84828501611180565b91505092915050565b60006040820190506112596000830185610e5f565b6112666020830184610df9565b9392505050565b60006040820190506112826000830185610e5f565b61128f6020830184610e5f565b939250505056fea26469706673582212202736428610f914bfd4ddacd8d0fabd5175af1e409472d1a71402212c7a23611364736f6c634300081c0033",
  "linkReferences": {},
  "deployedLinkReferences": {}
}