{
  "_format": "hh-sol-artifact-1",
  "contractName": "Vault",
  "sourceName": "contracts/Vault.sol",
  "abi": [
    {
      "inputs": [
        {
          "internalType": "address",
          "name": "_token",
          "type": "address"
        }
      ],
      "stateMutability": "nonpayable",
      "type": "constructor"
    },
    {
      "inputs": [],
      "name": "EnforcedPause",
      "type": "error"
    },
    {
      "inputs": [],
      "name": "ExpectedPause",
      "type": "error"
    },
    {
      "inputs": [
        {
          "internalType": "address",
          "name": "owner",
          "type": "address"
        }
      ],
      "name": "OwnableInvalidOwner",
      "type": "error"
    },
    {
      "inputs": [
        {
          "internalType": "address",
          "name": "account",
          "type": "address"
        }
      ],
      "name": "OwnableUnauthorizedAccount",
      "type": "error"
    },
    {
      "inputs": [],
      "name": "ReentrancyGuardReentrantCall",
      "type": "error"
    },
    {
      "inputs": [
        {
          "internalType": "address",
          "name": "token",
          "type": "address"
        }
      ],
      "name": "SafeERC20FailedOperation",
      "type": "error"
    },
    {
      "anonymous": false,
      "inputs": [
        {
          "indexed": true,
          "internalType": "address",
          "name": "user",
          "type": "address"
        },
        {
          "indexed": false,
          "internalType": "uint256",
          "name": "amount",
          "type": "uint256"
        }
      ],
      "name": "Deposited",
      "type": "event"
    },
    {
      "anonymous": false,
      "inputs": [
        {
          "indexed": true,
          "internalType": "address",
          "name": "oldGuard",
          "type": "address"
        },
        {
          "indexed": true,
          "internalType": "address",
          "name": "newGuard",
          "type": "address"
        }
      ],
      "name": "GuardContractUpdated",
      "type": "event"
    },
    {
      "anonymous": false,
      "inputs": [
        {
          "indexed": true,
          "internalType": "address",
          "name": "previousOwner",
          "type": "address"
        },
        {
          "indexed": true,
          "internalType": "address",
          "name": "newOwner",
          "type": "address"
        }
      ],
      "name": "OwnershipTransferred",
      "type": "event"
    },
    {
      "anonymous": false,
      "inputs": [
        {
          "indexed": false,
          "internalType": "address",
          "name": "account",
          "type": "address"
        }
      ],
      "name": "Paused",
      "type": "event"
    },
    {
      "anonymous": false,
      "inputs": [
        {
          "indexed": false,
          "internalType": "address",
          "name": "account",
          "type": "address"
        }
      ],
      "name": "Unpaused",
      "type": "event"
    },
    {
      "anonymous": false,
      "inputs": [
        {
          "indexed": true,
          "internalType": "address",
          "name": "user",
          "type": "address"
        },
        {
          "indexed": false,
          "internalType": "uint256",
          "name": "amount",
          "type": "uint256"
        }
      ],
      "name": "Withdrawn",
      "type": "event"
    },
    {
      "inputs": [
        {
          "internalType": "address",
          "name": "user",
          "type": "address"
        }
      ],
      "name": "balanceOf",
      "outputs": [
        {
          "internalType": "uint256",
          "name": "",
          "type": "uint256"
        }
      ],
      "stateMutability": "view",
      "type": "function"
    },
    {
      "inputs": [
        {
          "internalType": "uint256",
          "name": "amount",
          "type": "uint256"
        }
      ],
      "name": "deposit",
      "outputs": [],
      "stateMutability": "nonpayable",
      "type": "function"
    },
    {
      "inputs": [],
      "name": "guardContract",
      "outputs": [
        {
          "internalType": "address",
          "name": "",
          "type": "address"
        }
      ],
      "stateMutability": "view",
      "type": "function"
    },
    {
      "inputs": [],
      "name": "owner",
      "outputs": [
        {
          "internalType": "address",
          "name": "",
          "type": "address"
        }
      ],
      "stateMutability": "view",
      "type": "function"
    },
    {
      "inputs": [],
      "name": "pause",
      "outputs": [],
      "stateMutability": "nonpayable",
      "type": "function"
    },
    {
      "inputs": [],
      "name": "paused",
      "outputs": [
        {
          "internalType": "bool",
          "name": "",
          "type": "bool"
        }
      ],
      "stateMutability": "view",
      "type": "function"
    },
    {
      "inputs": [],
      "name": "renounceOwnership",
      "outputs": [],
      "stateMutability": "nonpayable",
      "type": "function"
    },
    {
      "inputs": [
        {
          "internalType": "address",
          "name": "_guardContract",
          "type": "address"
        }
      ],
      "name": "setGuardContract",
      "outputs": [],
      "stateMutability": "nonpayable",
      "type": "function"
    },
    {
      "inputs": [],
      "name": "token",
      "outputs": [
        {
          "internalType": "contract IERC20",
          "name": "",
          "type": "address"
        }
      ],
      "stateMutability": "view",
      "type": "function"
    },
    {
      "inputs": [],
      "name": "totalDeposited",
      "outputs": [
        {
          "internalType": "uint256",
          "name": "",
          "type": "uint256"
        }
      ],
      "stateMutability": "view",
      "type": "function"
    },
    {
      "inputs": [],
      "name": "totalWithdrawn",
      "outputs": [
        {
          "internalType": "uint256",
          "name": "",
          "type": "uint256"
        }
      ],
      "stateMutability": "view",
      "type": "function"
    },
    {
      "inputs": [
        {
          "internalType": "address",
          "name": "newOwner",
          "type": "address"
        }
      ],
      "name": "transferOwnership",
      "outputs": [],
      "stateMutability": "nonpayable",
      "type": "function"
    },
    {
      "inputs": [],
      "name": "unpause",
      "outputs": [],
      "stateMutability": "nonpayable",
      "type": "function"
    },
    {
      "inputs": [
        {
          "internalType": "address",
          "name": "",
          "type": "address"
        }
      ],
      "name": "userBalances",
      "outputs": [
        {
          "internalType": "uint256",
          "name": "",
          "type": "uint256"
        }
      ],
      "stateMutability": "view",
      "type": "function"
    },
    {
      "inputs": [
        {
          "internalType": "address",
          "name": "",
          "type": "address"
        }
      ],
      "name": "userDepositTime",
      "outputs": [
        {
          "internalType": "uint256",
          "name": "",
          "type": "uint256"
        }
      ],
      "stateMutability": "view",
      "type": "function"
    },
    {
      "inputs": [
        {
          "internalType": "address",
          "name": "user",
          "type": "address"
        },
        {
          "internalType": "uint256",
          "name": "amount",
          "type": "uint256"
        }
      ],
      "name": "withdraw",
      "outputs": [],
      "stateMutability": "nonpayable",
      "type": "function"
    }
  ],
  "bytecode": "0x60a060405234801561001057600080fd5b506040516119393803806119398339818101604052810190610032919061028c565b33600073ffffffffffffffffffffffffffffffffffffffff168173ffffffffffffffffffffffffffffffffffffffff16036100a55760006040517f1e4fbdf700000000000000000000000000000000000000000000000000000000815260040161009c91906102c8565b60405180910390fd5b6100b48161016560201b60201c565b5060018081905550600073ffffffffffffffffffffffffffffffffffffffff168173ffffffffffffffffffffffffffffffffffffffff160361012b576040517f08c379a000000000000000000000000000000000000000000000000000000000815260040161012290610340565b60405180910390fd5b8073ffffffffffffffffffffffffffffffffffffffff1660808173ffffffffffffffffffffffffffffffffffffffff168152505050610360565b60008060009054906101000a900473ffffffffffffffffffffffffffffffffffffffff169050816000806101000a81548173ffffffffffffffffffffffffffffffffffffffff021916908373ffffffffffffffffffffffffffffffffffffffff1602179055508173ffffffffffffffffffffffffffffffffffffffff168173ffffffffffffffffffffffffffffffffffffffff167f8be0079c531659141344cd1fd0a4f28419497f9722a3daafe3b4186f6b6457e060405160405180910390a35050565b600080fd5b600073ffffffffffffffffffffffffffffffffffffffff82169050919050565b60006102598261022e565b9050919050565b6102698161024e565b811461027457600080fd5b50565b60008151905061028681610260565b92915050565b6000602082840312156102a2576102a1610229565b5b60006102b084828501610277565b91505092915050565b6102c28161024e565b82525050565b60006020820190506102dd60008301846102b9565b92915050565b600082825260208201905092915050565b7f5661756c743a207a65726f20746f6b656e206164647265737300000000000000600082015250565b600061032a6019836102e3565b9150610335826102f4565b602082019050919050565b600060208201905081810360008301526103598161031d565b9050919050565b6080516115a961039060003960008181610432015281816105150152818161091c01526109bc01526115a96000f3fe608060405234801561001057600080fd5b50600436106101005760003560e01c80638da5cb5b11610097578063f3fef3a311610066578063f3fef3a314610263578063fc0c546a1461027f578063fe83025e1461029d578063ff50abdc146102b957610100565b80638da5cb5b146101dd578063b6b55f25146101fb578063cf27e06f14610217578063f2fde38b1461024757610100565b80635c975abb116100d35780635c975abb1461017b57806370a0823114610199578063715018a6146101c95780638456cb59146101d357610100565b806326224c6414610105578063302fc7f6146101355780633f4ba83a146101535780634b3197131461015d575b600080fd5b61011f600480360381019061011a9190611010565b6102d7565b60405161012c9190611056565b60405180910390f35b61013d6102ef565b60405161014a9190611080565b60405180910390f35b61015b610315565b005b610165610327565b6040516101729190611056565b60405180910390f35b61018361032d565b60405161019091906110b6565b60405180910390f35b6101b360048036038101906101ae9190611010565b610344565b6040516101c09190611056565b60405180910390f35b6101d161038d565b005b6101db6103a1565b005b6101e56103b3565b6040516101f29190611080565b60405180910390f35b610215600480360381019061021091906110fd565b6103dc565b005b610231600480360381019061022c9190611010565b610666565b60405161023e9190611056565b60405180910390f35b610261600480360381019061025c9190611010565b61067e565b005b61027d6004803603810190610278919061112a565b610704565b005b6102876109ba565b60405161029491906111c9565b60405180910390f35b6102b760048036038101906102b29190611010565b6109de565b005b6102c1610b1b565b6040516102ce9190611056565b60405180910390f35b60056020528060005260406000206000915090505481565b600260019054906101000a900473ffffffffffffffffffffffffffffffffffffffff1681565b61031d610b21565b610325610ba8565b565b60045481565b6000600260009054906101000a900460ff16905090565b6000600560008373ffffffffffffffffffffffffffffffffffffffff1673ffffffffffffffffffffffffffffffffffffffff168152602001908152602001600020549050919050565b610395610b21565b61039f6000610c0b565b565b6103a9610b21565b6103b1610ccf565b565b60008060009054906101000a900473ffffffffffffffffffffffffffffffffffffffff16905090565b6103e4610d32565b6103ec610d73565b6000811161042f576040517f08c379a000000000000000000000000000000000000000000000000000000000815260040161042690611241565b60405180910390fd5b807f000000000000000000000000000000000000000000000000000000000000000073ffffffffffffffffffffffffffffffffffffffff1663dd62ed3e33306040518363ffffffff1660e01b815260040161048b929190611261565b602060405180830381865afa1580156104a8573d6000803e3d6000fd5b505050506040513d601f19601f820116820180604052508101906104cc919061129f565b101561050d576040517f08c379a000000000000000000000000000000000000000000000000000000000815260040161050490611318565b60405180910390fd5b61055a3330837f000000000000000000000000000000000000000000000000000000000000000073ffffffffffffffffffffffffffffffffffffffff16610db9909392919063ffffffff16565b80600560003373ffffffffffffffffffffffffffffffffffffffff1673ffffffffffffffffffffffffffffffffffffffff16815260200190815260200160002060008282546105a99190611367565b9250508190555042600660003373ffffffffffffffffffffffffffffffffffffffff1673ffffffffffffffffffffffffffffffffffffffff1681526020019081526020016000208190555080600360008282546106069190611367565b925050819055503373ffffffffffffffffffffffffffffffffffffffff167f2da466a7b24304f47e87fa2e1e5a81b9831ce54fec19055ce277ca2f39ba42c4826040516106539190611056565b60405180910390a2610663610e3b565b50565b60066020528060005260406000206000915090505481565b610686610b21565b600073ffffffffffffffffffffffffffffffffffffffff168173ffffffffffffffffffffffffffffffffffffffff16036106f85760006040517f1e4fbdf70000000000000000000000000000000000000000000000000000000081526004016106ef9190611080565b60405180910390fd5b61070181610c0b565b50565b600260019054906101000a900473ffffffffffffffffffffffffffffffffffffffff1673ffffffffffffffffffffffffffffffffffffffff163373ffffffffffffffffffffffffffffffffffffffff16148061079257506107636103b3565b73ffffffffffffffffffffffffffffffffffffffff163373ffffffffffffffffffffffffffffffffffffffff16145b6107d1576040517f08c379a00000000000000000000000000000000000000000000000000000000081526004016107c8906113e7565b60405180910390fd5b6107d9610d32565b6107e1610d73565b60008111610824576040517f08c379a000000000000000000000000000000000000000000000000000000000815260040161081b90611241565b60405180910390fd5b80600560008473ffffffffffffffffffffffffffffffffffffffff1673ffffffffffffffffffffffffffffffffffffffff1681526020019081526020016000205410156108a6576040517f08c379a000000000000000000000000000000000000000000000000000000000815260040161089d90611453565b60405180910390fd5b80600560008473ffffffffffffffffffffffffffffffffffffffff1673ffffffffffffffffffffffffffffffffffffffff16815260200190815260200160002060008282546108f59190611473565b92505081905550806004600082825461090e9190611367565b9250508190555061096082827f000000000000000000000000000000000000000000000000000000000000000073ffffffffffffffffffffffffffffffffffffffff16610e449092919063ffffffff16565b8173ffffffffffffffffffffffffffffffffffffffff167f7084f5476618d8e60b11ef0d7d3f06914655adb8793e28ff7f018d4c76d505d5826040516109a69190611056565b60405180910390a26109b6610e3b565b5050565b7f000000000000000000000000000000000000000000000000000000000000000081565b6109e6610b21565b600073ffffffffffffffffffffffffffffffffffffffff168173ffffffffffffffffffffffffffffffffffffffff1603610a55576040517f08c379a0000000000000000000000000000000000000000000000000000000008152600401610a4c906114f3565b60405180910390fd5b6000600260019054906101000a900473ffffffffffffffffffffffffffffffffffffffff16905081600260016101000a81548173ffffffffffffffffffffffffffffffffffffffff021916908373ffffffffffffffffffffffffffffffffffffffff1602179055508173ffffffffffffffffffffffffffffffffffffffff168173ffffffffffffffffffffffffffffffffffffffff167f9fd4c5bdd7fb6843ecb633e9697dd6ec8386ce1090709af7b8e49493693f8a2b60405160405180910390a35050565b60035481565b610b29610ec3565b73ffffffffffffffffffffffffffffffffffffffff16610b476103b3565b73ffffffffffffffffffffffffffffffffffffffff1614610ba657610b6a610ec3565b6040517f118cdaa7000000000000000000000000000000000000000000000000000000008152600401610b9d9190611080565b60405180910390fd5b565b610bb0610ecb565b6000600260006101000a81548160ff0219169083151502179055507f5db9ee0a495bf2e6ff9c91a7834c1ba4fdd244a5e8aa4e537bd38aeae4b073aa610bf4610ec3565b604051610c019190611080565b60405180910390a1565b60008060009054906101000a900473ffffffffffffffffffffffffffffffffffffffff169050816000806101000a81548173ffffffffffffffffffffffffffffffffffffffff021916908373ffffffffffffffffffffffffffffffffffffffff1602179055508173ffffffffffffffffffffffffffffffffffffffff168173ffffffffffffffffffffffffffffffffffffffff167f8be0079c531659141344cd1fd0a4f28419497f9722a3daafe3b4186f6b6457e060405160405180910390a35050565b610cd7610d32565b6001600260006101000a81548160ff0219169083151502179055507f62e78cea01bee320cd4e420270b5ea74000d11b0c9f74754ebdbfc544b05a258610d1b610ec3565b604051610d289190611080565b60405180910390a1565b610d3a61032d565b15610d71576040517fd93c066500000000000000000000000000000000000000000000000000000000815260040160405180910390fd5b565b600260015403610daf576040517f3ee5aeb500000000000000000000000000000000000000000000000000000000815260040160405180910390fd5b6002600181905550565b610e35848573ffffffffffffffffffffffffffffffffffffffff166323b872dd868686604051602401610dee93929190611513565b604051602081830303815290604052915060e01b6020820180517bffffffffffffffffffffffffffffffffffffffffffffffffffffffff8381831617835250505050610f0b565b50505050565b60018081905550565b610ebe838473ffffffffffffffffffffffffffffffffffffffff1663a9059cbb8585604051602401610e7792919061154a565b604051602081830303815290604052915060e01b6020820180517bffffffffffffffffffffffffffffffffffffffffffffffffffffffff8381831617835250505050610f0b565b505050565b600033905090565b610ed361032d565b610f09576040517f8dfc202b00000000000000000000000000000000000000000000000000000000815260040160405180910390fd5b565b600080602060008451602086016000885af180610f2e576040513d6000823e3d81fd5b3d925060005191505060008214610f49576001811415610f65565b60008473ffffffffffffffffffffffffffffffffffffffff163b145b15610fa757836040517f5274afe7000000000000000000000000000000000000000000000000000000008152600401610f9e9190611080565b60405180910390fd5b50505050565b600080fd5b600073ffffffffffffffffffffffffffffffffffffffff82169050919050565b6000610fdd82610fb2565b9050919050565b610fed81610fd2565b8114610ff857600080fd5b50565b60008135905061100a81610fe4565b92915050565b60006020828403121561102657611025610fad565b5b600061103484828501610ffb565b91505092915050565b6000819050919050565b6110508161103d565b82525050565b600060208201905061106b6000830184611047565b92915050565b61107a81610fd2565b82525050565b60006020820190506110956000830184611071565b92915050565b60008115159050919050565b6110b08161109b565b82525050565b60006020820190506110cb60008301846110a7565b92915050565b6110da8161103d565b81146110e557600080fd5b50565b6000813590506110f7816110d1565b92915050565b60006020828403121561111357611112610fad565b5b6000611121848285016110e8565b91505092915050565b6000806040838503121561114157611140610fad565b5b600061114f85828601610ffb565b9250506020611160858286016110e8565b9150509250929050565b6000819050919050565b600061118f61118a61118584610fb2565b61116a565b610fb2565b9050919050565b60006111a182611174565b9050919050565b60006111b382611196565b9050919050565b6111c3816111a8565b82525050565b60006020820190506111de60008301846111ba565b92915050565b600082825260208201905092915050565b7f5661756c743a20616d6f756e74207a65726f0000000000000000000000000000600082015250565b600061122b6012836111e4565b9150611236826111f5565b602082019050919050565b6000602082019050818103600083015261125a8161121e565b9050919050565b60006040820190506112766000830185611071565b6112836020830184611071565b9392505050565b600081519050611299816110d1565b92915050565b6000602082840312156112b5576112b4610fad565b5b60006112c38482850161128a565b91505092915050565b7f5661756c743a20616c6c6f77616e6365206c6f77000000000000000000000000600082015250565b60006113026014836111e4565b915061130d826112cc565b602082019050919050565b60006020820190508181036000830152611331816112f5565b9050919050565b7f4e487b7100000000000000000000000000000000000000000000000000000000600052601160045260246000fd5b60006113728261103d565b915061137d8361103d565b925082820190508082111561139557611394611338565b5b92915050565b7f5661756c743a204e6f7420617574686f72697a65640000000000000000000000600082015250565b60006113d16015836111e4565b91506113dc8261139b565b602082019050919050565b60006020820190508181036000830152611400816113c4565b9050919050565b7f5661756c743a20696e73756666696369656e742062616c616e63650000000000600082015250565b600061143d601b836111e4565b915061144882611407565b602082019050919050565b6000602082019050818103600083015261146c81611430565b9050919050565b600061147e8261103d565b91506114898361103d565b92508282039050818111156114a1576114a0611338565b5b92915050565b7f5661756c743a207a65726f206775617264206164647265737300000000000000600082015250565b60006114dd6019836111e4565b91506114e8826114a7565b602082019050919050565b6000602082019050818103600083015261150c816114d0565b9050919050565b60006060820190506115286000830186611071565b6115356020830185611071565b6115426040830184611047565b949350505050565b600060408201905061155f6000830185611071565b61156c6020830184611047565b939250505056fea2646970667358221220d3afa98f998050c781fb2d5b71736bebe4b91b003eb98dba87e57f31817bba0964736f6c634300081c0033",
  "linkReferences": {},
  "deployedLinkReferences": {}
}